{"contracts/Crowdfunding.sol":{"Crowdfunding":{"abi":[{"inputs":[{"internalType":"address","name":"_rewardTokenAddress","type":"address"}],"stateMutability":"nonpayable","type":"constructor"},{"inputs":[{"internalType":"address","name":"owner","type":"address"}],"name":"OwnableInvalidOwner","type":"error"},{"inputs":[{"internalType":"address","name":"account","type":"address"}],"name":"OwnableUnauthorizedAccount","type":"error"},{"anonymous":false,"inputs":[{"indexed":false,"internalType":"uint256","name":"id","type":"uint256"},{"indexed":false,"internalType":"string","name":"title","type":"string"},{"indexed":false,"internalType":"uint256","name":"goal","type":"uint256"},{"indexed":false,"internalType":"uint256","name":"deadline","type":"uint256"},{"indexed":false,"internalType":"address","name":"creator","type":"address"}],"name":"CampaignCreated","type":"event"},{"anonymous":false,"inputs":[{"indexed":false,"internalType":"uint256","name":"campaignId","type":"uint256"},{"indexed":false,"internalType":"uint256","name":"totalRaised","type":"uint256"}],"name":"CampaignFinalized","type":"event"},{"anonymous":false,"inputs":[{"indexed":false,"internalType":"uint256","name":"campaignId","type":"uint256"},{"indexed":false,"internalType":"address","name":"contributor","type":"address"},{"indexed":false,"internalType":"uint256","name":"amount","type":"uint256"}],"name":"ContributionMade","type":"event"},{"anonymous":false,"inputs":[{"indexed":true,"internalType":"address","name":"previousOwner","type":"address"},{"indexed":true,"internalType":"address","name":"newOwner","type":"address"}],"name":"OwnershipTransferred","type":"event"},{"inputs":[],"name":"campaignCount","outputs":[{"internalType":"uint256","name":"","type":"uint256"}],"stateMutability":"view","type":"function"},{"inputs":[{"internalType":"uint256","name":"","type":"uint256"}],"name":"campaigns","outputs":[{"internalType":"uint256","name":"id","type":"uint256"},{"internalType":"string","name":"title","type":"string"},{"internalType":"uint256","name":"goal","type":"uint256"},{"internalType":"uint256","name":"deadline","type":"uint256"},{"internalType":"address payable","name":"creator","type":"address"},{"internalType":"uint256","name":"totalRaised","type":"uint256"},{"internalType":"bool","name":"finalized","type":"bool"}],"stateMutability":"view","type":"function"},{"inputs":[{"internalType":"uint256","name":"_campaignId","type":"uint256"}],"name":"contribute","outputs":[],"stateMutability":"payable","type":"function"},{"inputs":[{"internalType":"uint256","name":"","type":"uint256"},{"internalType":"address","name":"","type":"address"}],"name":"contributions","outputs":[{"internalType":"uint256","name":"","type":"uint256"}],"stateMutability":"view","type":"function"},{"inputs":[{"internalType":"string","name":"_title","type":"string"},{"internalType":"uint256","name":"_goal","type":"uint256"},{"internalType":"uint256","name":"_duration","type":"uint256"}],"name":"createCampaign","outputs":[],"stateMutability":"nonpayable","type":"function"},{"inputs":[{"internalType":"uint256","name":"_campaignId","type":"uint256"}],"name":"finalizeCampaign","outputs":[],"stateMutability":"nonpayable","type":"function"},{"inputs":[{"internalType":"uint256","name":"_campaignId","type":"uint256"}],"name":"getCampaign","outputs":[{"internalType":"uint256","name":"id","type":"uint256"},{"internalType":"string","name":"title","type":"string"},{"internalType":"uint256","name":"goal","type":"uint256"},{"internalType":"uint256","name":"deadline","type":"uint256"},{"internalType":"address","name":"creator","type":"address"},{"internalType":"uint256","name":"totalRaised","type":"uint256"},{"internalType":"bool","name":"finalized","type":"bool"}],"stateMutability":"view","type":"function"},{"inputs":[],"name":"owner","outputs":[{"internalType":"address","name":"","type":"address"}],"stateMutability":"view","type":"function"},{"inputs":[],"name":"renounceOwnership","outputs":[],"stateMutability":"nonpayable","type":"function"},{"inputs":[],"name":"rewardToken","outputs":[{"internalType":"contract RNTtoken","name":"","type":"address"}],"stateMutability":"view","type":"function"},{"inputs":[{"internalType":"address","name":"newOwner","type":"address"}],"name":"transferOwnership","outputs":[],"stateMutability":"nonpayable","type":"function"}],"evm":{"bytecode":{"linkReferences":{},"object":"60806040523480156200001157600080fd5b5060405162001cbf38038062001cbf833981810160405281019062000037919062000235565b33600073ffffffffffffffffffffffffffffffffffffffff168173ffffffffffffffffffffffffffffffffffffffff1603620000ad5760006040517f1e4fbdf7000000000000000000000000000000000000000000000000000000008152600401620000a4919062000278565b60405180910390fd5b620000be816200010760201b60201c565b5080600160006101000a81548173ffffffffffffffffffffffffffffffffffffffff021916908373ffffffffffffffffffffffffffffffffffffffff1602179055505062000295565b60008060009054906101000a900473ffffffffffffffffffffffffffffffffffffffff169050816000806101000a81548173ffffffffffffffffffffffffffffffffffffffff021916908373ffffffffffffffffffffffffffffffffffffffff1602179055508173ffffffffffffffffffffffffffffffffffffffff168173ffffffffffffffffffffffffffffffffffffffff167f8be0079c531659141344cd1fd0a4f28419497f9722a3daafe3b4186f6b6457e060405160405180910390a35050565b600080fd5b600073ffffffffffffffffffffffffffffffffffffffff82169050919050565b6000620001fd82620001d0565b9050919050565b6200020f81620001f0565b81146200021b57600080fd5b50565b6000815190506200022f8162000204565b92915050565b6000602082840312156200024e576200024d620001cb565b5b60006200025e848285016200021e565b91505092915050565b6200027281620001f0565b82525050565b60006020820190506200028f600083018462000267565b92915050565b611a1a80620002a56000396000f3fe60806040526004361061009c5760003560e01c8063715018a611610064578063715018a6146101b65780637274e30d146101cd5780638da5cb5b146101f8578063c1cbbca714610223578063f2fde38b1461023f578063f7c618c1146102685761009c565b8063141961bc146100a15780633020580b146100e45780633d891f591461010d5780635598f8cc1461014a5780636b5ca27d1461018d575b600080fd5b3480156100ad57600080fd5b506100c860048036038101906100c39190610d4a565b610293565b6040516100db9796959493929190610e72565b60405180910390f35b3480156100f057600080fd5b5061010b6004803603810190610106919061101d565b61038a565b005b34801561011957600080fd5b50610134600480360381019061012f91906110ca565b610590565b604051610141919061110a565b60405180910390f35b34801561015657600080fd5b50610171600480360381019061016c9190610d4a565b6105b5565b6040516101849796959493929190611134565b60405180910390f35b34801561019957600080fd5b506101b460048036038101906101af9190610d4a565b6106cc565b005b3480156101c257600080fd5b506101cb61086a565b005b3480156101d957600080fd5b506101e261087e565b6040516101ef919061110a565b60405180910390f35b34801561020457600080fd5b5061020d610884565b60405161021a91906111aa565b60405180910390f35b61023d60048036038101906102389190610d4a565b6108ad565b005b34801561024b57600080fd5b50610266600480360381019061026191906111c5565b610b01565b005b34801561027457600080fd5b5061027d610b87565b60405161028a9190611251565b60405180910390f35b60036020528060005260406000206000915090508060000154908060010180546102bc9061129b565b80601f01602080910402602001604051908101604052809291908181526020018280546102e89061129b565b80156103355780601f1061030a57610100808354040283529160200191610335565b820191906000526020600020905b81548152906001019060200180831161031857829003601f168201915b5050505050908060020154908060030154908060040160009054906101000a900473ffffffffffffffffffffffffffffffffffffffff16908060050154908060060160009054906101000a900460ff16905087565b600082116103cd576040517f08c379a00000000000000000000000000000000000000000000000000000000081526004016103c490611318565b60405180910390fd5b60008111610410576040517f08c379a000000000000000000000000000000000000000000000000000000000815260040161040790611384565b60405180910390fd5b60026000815480929190610423906113d3565b91905055506040518060e0016040528060025481526020018481526020018381526020018242610453919061141b565b81526020013373ffffffffffffffffffffffffffffffffffffffff16815260200160008152602001600015158152506003600060025481526020019081526020016000206000820151816000015560208201518160010190816104b691906115f1565b50604082015181600201556060820151816003015560808201518160040160006101000a81548173ffffffffffffffffffffffffffffffffffffffff021916908373ffffffffffffffffffffffffffffffffffffffff16021790555060a0820151816005015560c08201518160060160006101000a81548160ff0219169083151502179055509050507f55c246c9acac35defa7b5b11325208f9615273b139a7d1642a880afb4568637e60025484848442610571919061141b565b336040516105839594939291906116c3565b60405180910390a1505050565b6004602052816000526040600020602052806000526040600020600091509150505481565b60006060600080600080600080600360008a81526020019081526020016000209050806000015481600101826002015483600301548460040160009054906101000a900473ffffffffffffffffffffffffffffffffffffffff1685600501548660060160009054906101000a900460ff168580546106329061129b565b80601f016020809104026020016040519081016040528092919081815260200182805461065e9061129b565b80156106ab5780601f10610680576101008083540402835291602001916106ab565b820191906000526020600020905b81548152906001019060200180831161068e57829003601f168201915b50505050509550975097509750975097509750975050919395979092949650565b60006003600083815260200190815260200160002090508060030154421015806106fe57508060020154816005015410155b61073d576040517f08c379a00000000000000000000000000000000000000000000000000000000081526004016107349061178f565b60405180910390fd5b8060060160009054906101000a900460ff161561078f576040517f08c379a0000000000000000000000000000000000000000000000000000000008152600401610786906117fb565b60405180910390fd5b60018160060160006101000a81548160ff021916908315150217905550600081600501541115610829578060040160009054906101000a900473ffffffffffffffffffffffffffffffffffffffff1673ffffffffffffffffffffffffffffffffffffffff166108fc82600501549081150290604051600060405180830381858888f19350505050158015610827573d6000803e3d6000fd5b505b7f97ff17358ff164756139cc936b31534c4a39ff7d10563278088e003121e5318782826005015460405161085e92919061181b565b60405180910390a15050565b610872610bad565b61087c6000610c34565b565b60025481565b60008060009054906101000a900473ffffffffffffffffffffffffffffffffffffffff16905090565b60006003600083815260200190815260200160002090508060030154421061090a576040517f08c379a000000000000000000000000000000000000000000000000000000000815260040161090190611890565b60405180910390fd5b8060060160009054906101000a900460ff161561095c576040517f08c379a0000000000000000000000000000000000000000000000000000000008152600401610953906117fb565b60405180910390fd5b6000341161099f576040517f08c379a000000000000000000000000000000000000000000000000000000000815260040161099690611922565b60405180910390fd5b348160050160008282546109b3919061141b565b92505081905550346004600084815260200190815260200160002060003373ffffffffffffffffffffffffffffffffffffffff1673ffffffffffffffffffffffffffffffffffffffff1681526020019081526020016000206000828254610a1a919061141b565b925050819055506000606434610a309190611942565b9050600160009054906101000a900473ffffffffffffffffffffffffffffffffffffffff1673ffffffffffffffffffffffffffffffffffffffff166340c10f1933836040518363ffffffff1660e01b8152600401610a8f929190611984565b600060405180830381600087803b158015610aa957600080fd5b505af1158015610abd573d6000803e3d6000fd5b505050507f0a4a91237423e0a1766a761c7cb029311d8b95d6b1b81db1b949a70c98b4e08e833334604051610af4939291906119ad565b60405180910390a1505050565b610b09610bad565b600073ffffffffffffffffffffffffffffffffffffffff168173ffffffffffffffffffffffffffffffffffffffff1603610b7b5760006040517f1e4fbdf7000000000000000000000000000000000000000000000000000000008152600401610b7291906111aa565b60405180910390fd5b610b8481610c34565b50565b600160009054906101000a900473ffffffffffffffffffffffffffffffffffffffff1681565b610bb5610cf8565b73ffffffffffffffffffffffffffffffffffffffff16610bd3610884565b73ffffffffffffffffffffffffffffffffffffffff1614610c3257610bf6610cf8565b6040517f118cdaa7000000000000000000000000000000000000000000000000000000008152600401610c2991906111aa565b60405180910390fd5b565b60008060009054906101000a900473ffffffffffffffffffffffffffffffffffffffff169050816000806101000a81548173ffffffffffffffffffffffffffffffffffffffff021916908373ffffffffffffffffffffffffffffffffffffffff1602179055508173ffffffffffffffffffffffffffffffffffffffff168173ffffffffffffffffffffffffffffffffffffffff167f8be0079c531659141344cd1fd0a4f28419497f9722a3daafe3b4186f6b6457e060405160405180910390a35050565b600033905090565b6000604051905090565b600080fd5b600080fd5b6000819050919050565b610d2781610d14565b8114610d3257600080fd5b50565b600081359050610d4481610d1e565b92915050565b600060208284031215610d6057610d5f610d0a565b5b6000610d6e84828501610d35565b91505092915050565b610d8081610d14565b82525050565b600081519050919050565b600082825260208201905092915050565b60005b83811015610dc0578082015181840152602081019050610da5565b60008484015250505050565b6000601f19601f8301169050919050565b6000610de882610d86565b610df28185610d91565b9350610e02818560208601610da2565b610e0b81610dcc565b840191505092915050565b600073ffffffffffffffffffffffffffffffffffffffff82169050919050565b6000610e4182610e16565b9050919050565b610e5181610e36565b82525050565b60008115159050919050565b610e6c81610e57565b82525050565b600060e082019050610e87600083018a610d77565b8181036020830152610e998189610ddd565b9050610ea86040830188610d77565b610eb56060830187610d77565b610ec26080830186610e48565b610ecf60a0830185610d77565b610edc60c0830184610e63565b98975050505050505050565b600080fd5b600080fd5b7f4e487b7100000000000000000000000000000000000000000000000000000000600052604160045260246000fd5b610f2a82610dcc565b810181811067ffffffffffffffff82111715610f4957610f48610ef2565b5b80604052505050565b6000610f5c610d00565b9050610f688282610f21565b919050565b600067ffffffffffffffff821115610f8857610f87610ef2565b5b610f9182610dcc565b9050602081019050919050565b82818337600083830152505050565b6000610fc0610fbb84610f6d565b610f52565b905082815260208101848484011115610fdc57610fdb610eed565b5b610fe7848285610f9e565b509392505050565b600082601f83011261100457611003610ee8565b5b8135611014848260208601610fad565b91505092915050565b60008060006060848603121561103657611035610d0a565b5b600084013567ffffffffffffffff81111561105457611053610d0f565b5b61106086828701610fef565b935050602061107186828701610d35565b925050604061108286828701610d35565b9150509250925092565b600061109782610e16565b9050919050565b6110a78161108c565b81146110b257600080fd5b50565b6000813590506110c48161109e565b92915050565b600080604083850312156110e1576110e0610d0a565b5b60006110ef85828601610d35565b9250506020611100858286016110b5565b9150509250929050565b600060208201905061111f6000830184610d77565b92915050565b61112e8161108c565b82525050565b600060e082019050611149600083018a610d77565b818103602083015261115b8189610ddd565b905061116a6040830188610d77565b6111776060830187610d77565b6111846080830186611125565b61119160a0830185610d77565b61119e60c0830184610e63565b98975050505050505050565b60006020820190506111bf6000830184611125565b92915050565b6000602082840312156111db576111da610d0a565b5b60006111e9848285016110b5565b91505092915050565b6000819050919050565b600061121761121261120d84610e16565b6111f2565b610e16565b9050919050565b6000611229826111fc565b9050919050565b600061123b8261121e565b9050919050565b61124b81611230565b82525050565b60006020820190506112666000830184611242565b92915050565b7f4e487b7100000000000000000000000000000000000000000000000000000000600052602260045260246000fd5b600060028204905060018216806112b357607f821691505b6020821081036112c6576112c561126c565b5b50919050565b7f476f616c206d7573742062652067726561746572207468616e20300000000000600082015250565b6000611302601b83610d91565b915061130d826112cc565b602082019050919050565b60006020820190508181036000830152611331816112f5565b9050919050565b7f4475726174696f6e206d7573742062652067726561746572207468616e203000600082015250565b600061136e601f83610d91565b915061137982611338565b602082019050919050565b6000602082019050818103600083015261139d81611361565b9050919050565b7f4e487b7100000000000000000000000000000000000000000000000000000000600052601160045260246000fd5b60006113de82610d14565b91507fffffffffffffffffffffffffffffffffffffffffffffffffffffffffffffffff82036114105761140f6113a4565b5b600182019050919050565b600061142682610d14565b915061143183610d14565b9250828201905080821115611449576114486113a4565b5b92915050565b60008190508160005260206000209050919050565b60006020601f8301049050919050565b600082821b905092915050565b6000600883026114b17fffffffffffffffffffffffffffffffffffffffffffffffffffffffffffffffff82611474565b6114bb8683611474565b95508019841693508086168417925050509392505050565b60006114ee6114e96114e484610d14565b6111f2565b610d14565b9050919050565b6000819050919050565b611508836114d3565b61151c611514826114f5565b848454611481565b825550505050565b600090565b611531611524565b61153c8184846114ff565b505050565b5b8181101561156057611555600082611529565b600181019050611542565b5050565b601f8211156115a5576115768161144f565b61157f84611464565b8101602085101561158e578190505b6115a261159a85611464565b830182611541565b50505b505050565b600082821c905092915050565b60006115c8600019846008026115aa565b1980831691505092915050565b60006115e183836115b7565b9150826002028217905092915050565b6115fa82610d86565b67ffffffffffffffff81111561161357611612610ef2565b5b61161d825461129b565b611628828285611564565b600060209050601f83116001811461165b5760008415611649578287015190505b61165385826115d5565b8655506116bb565b601f1984166116698661144f565b60005b828110156116915784890151825560018201915060208501945060208101905061166c565b868310156116ae57848901516116aa601f8916826115b7565b8355505b6001600288020188555050505b505050505050565b600060a0820190506116d86000830188610d77565b81810360208301526116ea8187610ddd565b90506116f96040830186610d77565b6117066060830185610d77565b6117136080830184611125565b9695505050505050565b7f43616d706169676e20636f6e646974696f6e73206e6f74206d657420666f722060008201527f66696e616c697a6174696f6e0000000000000000000000000000000000000000602082015250565b6000611779602c83610d91565b91506117848261171d565b604082019050919050565b600060208201905081810360008301526117a88161176c565b9050919050565b7f43616d706169676e20616c72656164792066696e616c697a6564000000000000600082015250565b60006117e5601a83610d91565b91506117f0826117af565b602082019050919050565b60006020820190508181036000830152611814816117d8565b9050919050565b60006040820190506118306000830185610d77565b61183d6020830184610d77565b9392505050565b7f43616d706169676e2068617320656e6465640000000000000000000000000000600082015250565b600061187a601283610d91565b915061188582611844565b602082019050919050565b600060208201905081810360008301526118a98161186d565b9050919050565b7f436f6e747269627574696f6e206d75737420626520677265617465722074686160008201527f6e20300000000000000000000000000000000000000000000000000000000000602082015250565b600061190c602383610d91565b9150611917826118b0565b604082019050919050565b6000602082019050818103600083015261193b816118ff565b9050919050565b600061194d82610d14565b915061195883610d14565b925082820261196681610d14565b9150828204841483151761197d5761197c6113a4565b5b5092915050565b60006040820190506119996000830185611125565b6119a66020830184610d77565b9392505050565b60006060820190506119c26000830186610d77565b6119cf6020830185611125565b6119dc6040830184610d77565b94935050505056fea2646970667358221220dd687e1dce6cf90a538aee36003ed275a3a2374d06bcd5c4146394fa82297dce64736f6c63430008140033","opcodes":"PUSH1 0x80 PUSH1 0x40 MSTORE CALLVALUE DUP1 ISZERO PUSH3 0x11 JUMPI PUSH1 0x0 DUP1 REVERT JUMPDEST POP PUSH1 0x40 MLOAD PUSH3 0x1CBF CODESIZE SUB DUP1 PUSH3 0x1CBF DUP4 CODECOPY DUP2 DUP2 ADD PUSH1 0x40 MSTORE DUP2 ADD SWAP1 PUSH3 0x37 SWAP2 SWAP1 PUSH3 0x235 JUMP JUMPDEST CALLER PUSH1 0x0 PUSH20 0xFFFFFFFFFFFFFFFFFFFFFFFFFFFFFFFFFFFFFFFF AND DUP2 PUSH20 0xFFFFFFFFFFFFFFFFFFFFFFFFFFFFFFFFFFFFFFFF AND SUB PUSH3 0xAD JUMPI PUSH1 0x0 PUSH1 0x40 MLOAD PUSH32 0x1E4FBDF700000000000000000000000000000000000000000000000000000000 DUP2 MSTORE PUSH1 0x4 ADD PUSH3 0xA4 SWAP2 SWAP1 PUSH3 0x278 JUMP JUMPDEST PUSH1 0x40 MLOAD DUP1 SWAP2 SUB SWAP1 REVERT JUMPDEST PUSH3 0xBE DUP2 PUSH3 0x107 PUSH1 0x20 SHL PUSH1 0x20 SHR JUMP JUMPDEST POP DUP1 PUSH1 0x1 PUSH1 0x0 PUSH2 0x100 EXP DUP2 SLOAD DUP2 PUSH20 0xFFFFFFFFFFFFFFFFFFFFFFFFFFFFFFFFFFFFFFFF MUL NOT AND SWAP1 DUP4 PUSH20 0xFFFFFFFFFFFFFFFFFFFFFFFFFFFFFFFFFFFFFFFF AND MUL OR SWAP1 SSTORE POP POP PUSH3 0x295 JUMP JUMPDEST PUSH1 0x0 DUP1 PUSH1 0x0 SWAP1 SLOAD SWAP1 PUSH2 0x100 EXP SWAP1 DIV PUSH20 0xFFFFFFFFFFFFFFFFFFFFFFFFFFFFFFFFFFFFFFFF AND SWAP1 POP DUP2 PUSH1 0x0 DUP1 PUSH2 0x100 EXP DUP2 SLOAD DUP2 PUSH20 0xFFFFFFFFFFFFFFFFFFFFFFFFFFFFFFFFFFFFFFFF MUL NOT AND SWAP1 DUP4 PUSH20 0xFFFFFFFFFFFFFFFFFFFFFFFFFFFFFFFFFFFFFFFF AND MUL OR SWAP1 SSTORE POP DUP2 PUSH20 0xFFFFFFFFFFFFFFFFFFFFFFFFFFFFFFFFFFFFFFFF AND DUP2 PUSH20 0xFFFFFFFFFFFFFFFFFFFFFFFFFFFFFFFFFFFFFFFF AND PUSH32 0x8BE0079C531659141344CD1FD0A4F28419497F9722A3DAAFE3B4186F6B6457E0 PUSH1 0x40 MLOAD PUSH1 0x40 MLOAD DUP1 SWAP2 SUB SWAP1 LOG3 POP POP JUMP JUMPDEST PUSH1 0x0 DUP1 REVERT JUMPDEST PUSH1 0x0 PUSH20 0xFFFFFFFFFFFFFFFFFFFFFFFFFFFFFFFFFFFFFFFF DUP3 AND SWAP1 POP SWAP2 SWAP1 POP JUMP JUMPDEST PUSH1 0x0 PUSH3 0x1FD DUP3 PUSH3 0x1D0 JUMP JUMPDEST SWAP1 POP SWAP2 SWAP1 POP JUMP JUMPDEST PUSH3 0x20F DUP2 PUSH3 0x1F0 JUMP JUMPDEST DUP2 EQ PUSH3 0x21B JUMPI PUSH1 0x0 DUP1 REVERT JUMPDEST POP JUMP JUMPDEST PUSH1 0x0 DUP2 MLOAD SWAP1 POP PUSH3 0x22F DUP2 PUSH3 0x204 JUMP JUMPDEST SWAP3 SWAP2 POP POP JUMP JUMPDEST PUSH1 0x0 PUSH1 0x20 DUP3 DUP5 SUB SLT ISZERO PUSH3 0x24E JUMPI PUSH3 0x24D PUSH3 0x1CB JUMP JUMPDEST JUMPDEST PUSH1 0x0 PUSH3 0x25E DUP5 DUP3 DUP6 ADD PUSH3 0x21E JUMP JUMPDEST SWAP2 POP POP SWAP3 SWAP2 POP POP JUMP JUMPDEST PUSH3 0x272 DUP2 PUSH3 0x1F0 JUMP JUMPDEST DUP3 MSTORE POP POP JUMP JUMPDEST PUSH1 0x0 PUSH1 0x20 DUP3 ADD SWAP1 POP PUSH3 0x28F PUSH1 0x0 DUP4 ADD DUP5 PUSH3 0x267 JUMP JUMPDEST SWAP3 SWAP2 POP POP JUMP JUMPDEST PUSH2 0x1A1A DUP1 PUSH3 0x2A5 PUSH1 0x0 CODECOPY PUSH1 0x0 RETURN INVALID PUSH1 0x80 PUSH1 0x40 MSTORE PUSH1 0x4 CALLDATASIZE LT PUSH2 0x9C JUMPI PUSH1 0x0 CALLDATALOAD PUSH1 0xE0 SHR DUP1 PUSH4 0x715018A6 GT PUSH2 0x64 JUMPI DUP1 PUSH4 0x715018A6 EQ PUSH2 0x1B6 JUMPI DUP1 PUSH4 0x7274E30D EQ PUSH2 0x1CD JUMPI DUP1 PUSH4 0x8DA5CB5B EQ PUSH2 0x1F8 JUMPI DUP1 PUSH4 0xC1CBBCA7 EQ PUSH2 0x223 JUMPI DUP1 PUSH4 0xF2FDE38B EQ PUSH2 0x23F JUMPI DUP1 PUSH4 0xF7C618C1 EQ PUSH2 0x268 JUMPI PUSH2 0x9C JUMP JUMPDEST DUP1 PUSH4 0x141961BC EQ PUSH2 0xA1 JUMPI DUP1 PUSH4 0x3020580B EQ PUSH2 0xE4 JUMPI DUP1 PUSH4 0x3D891F59 EQ PUSH2 0x10D JUMPI DUP1 PUSH4 0x5598F8CC EQ PUSH2 0x14A JUMPI DUP1 PUSH4 0x6B5CA27D EQ PUSH2 0x18D JUMPI JUMPDEST PUSH1 0x0 DUP1 REVERT JUMPDEST CALLVALUE DUP1 ISZERO PUSH2 0xAD JUMPI PUSH1 0x0 DUP1 REVERT JUMPDEST POP PUSH2 0xC8 PUSH1 0x4 DUP1 CALLDATASIZE SUB DUP2 ADD SWAP1 PUSH2 0xC3 SWAP2 SWAP1 PUSH2 0xD4A JUMP JUMPDEST PUSH2 0x293 JUMP JUMPDEST PUSH1 0x40 MLOAD PUSH2 0xDB SWAP8 SWAP7 SWAP6 SWAP5 SWAP4 SWAP3 SWAP2 SWAP1 PUSH2 0xE72 JUMP JUMPDEST PUSH1 0x40 MLOAD DUP1 SWAP2 SUB SWAP1 RETURN JUMPDEST CALLVALUE DUP1 ISZERO PUSH2 0xF0 JUMPI PUSH1 0x0 DUP1 REVERT JUMPDEST POP PUSH2 0x10B PUSH1 0x4 DUP1 CALLDATASIZE SUB DUP2 ADD SWAP1 PUSH2 0x106 SWAP2 SWAP1 PUSH2 0x101D JUMP JUMPDEST PUSH2 0x38A JUMP JUMPDEST STOP JUMPDEST CALLVALUE DUP1 ISZERO PUSH2 0x119 JUMPI PUSH1 0x0 DUP1 REVERT JUMPDEST POP PUSH2 0x134 PUSH1 0x4 DUP1 CALLDATASIZE SUB DUP2 ADD SWAP1 PUSH2 0x12F SWAP2 SWAP1 PUSH2 0x10CA JUMP JUMPDEST PUSH2 0x590 JUMP JUMPDEST PUSH1 0x40 MLOAD PUSH2 0x141 SWAP2 SWAP1 PUSH2 0x110A JUMP JUMPDEST PUSH1 0x40 MLOAD DUP1 SWAP2 SUB SWAP1 RETURN JUMPDEST CALLVALUE DUP1 ISZERO PUSH2 0x156 JUMPI PUSH1 0x0 DUP1 REVERT JUMPDEST POP PUSH2 0x171 PUSH1 0x4 DUP1 CALLDATASIZE SUB DUP2 ADD SWAP1 PUSH2 0x16C SWAP2 SWAP1 PUSH2 0xD4A JUMP JUMPDEST PUSH2 0x5B5 JUMP JUMPDEST PUSH1 0x40 MLOAD PUSH2 0x184 SWAP8 SWAP7 SWAP6 SWAP5 SWAP4 SWAP3 SWAP2 SWAP1 PUSH2 0x1134 JUMP JUMPDEST PUSH1 0x40 MLOAD DUP1 SWAP2 SUB SWAP1 RETURN JUMPDEST CALLVALUE DUP1 ISZERO PUSH2 0x199 JUMPI PUSH1 0x0 DUP1 REVERT JUMPDEST POP PUSH2 0x1B4 PUSH1 0x4 DUP1 CALLDATASIZE SUB DUP2 ADD SWAP1 PUSH2 0x1AF SWAP2 SWAP1 PUSH2 0xD4A JUMP JUMPDEST PUSH2 0x6CC JUMP JUMPDEST STOP JUMPDEST CALLVALUE DUP1 ISZERO PUSH2 0x1C2 JUMPI PUSH1 0x0 DUP1 REVERT JUMPDEST POP PUSH2 0x1CB PUSH2 0x86A JUMP JUMPDEST STOP JUMPDEST CALLVALUE DUP1 ISZERO PUSH2 0x1D9 JUMPI PUSH1 0x0 DUP1 REVERT JUMPDEST POP PUSH2 0x1E2 PUSH2 0x87E JUMP JUMPDEST PUSH1 0x40 MLOAD PUSH2 0x1EF SWAP2 SWAP1 PUSH2 0x110A JUMP JUMPDEST PUSH1 0x40 MLOAD DUP1 SWAP2 SUB SWAP1 RETURN JUMPDEST CALLVALUE DUP1 ISZERO PUSH2 0x204 JUMPI PUSH1 0x0 DUP1 REVERT JUMPDEST POP PUSH2 0x20D PUSH2 0x884 JUMP JUMPDEST PUSH1 0x40 MLOAD PUSH2 0x21A SWAP2 SWAP1 PUSH2 0x11AA JUMP JUMPDEST PUSH1 0x40 MLOAD DUP1 SWAP2 SUB SWAP1 RETURN JUMPDEST PUSH2 0x23D PUSH1 0x4 DUP1 CALLDATASIZE SUB DUP2 ADD SWAP1 PUSH2 0x238 SWAP2 SWAP1 PUSH2 0xD4A JUMP JUMPDEST PUSH2 0x8AD JUMP JUMPDEST STOP JUMPDEST CALLVALUE DUP1 ISZERO PUSH2 0x24B JUMPI PUSH1 0x0 DUP1 REVERT JUMPDEST POP PUSH2 0x266 PUSH1 0x4 DUP1 CALLDATASIZE SUB DUP2 ADD SWAP1 PUSH2 0x261 SWAP2 SWAP1 PUSH2 0x11C5 JUMP JUMPDEST PUSH2 0xB01 JUMP JUMPDEST STOP JUMPDEST CALLVALUE DUP1 ISZERO PUSH2 0x274 JUMPI PUSH1 0x0 DUP1 REVERT JUMPDEST POP PUSH2 0x27D PUSH2 0xB87 JUMP JUMPDEST PUSH1 0x40 MLOAD PUSH2 0x28A SWAP2 SWAP1 PUSH2 0x1251 JUMP JUMPDEST PUSH1 0x40 MLOAD DUP1 SWAP2 SUB SWAP1 RETURN JUMPDEST PUSH1 0x3 PUSH1 0x20 MSTORE DUP1 PUSH1 0x0 MSTORE PUSH1 0x40 PUSH1 0x0 KECCAK256 PUSH1 0x0 SWAP2 POP SWAP1 POP DUP1 PUSH1 0x0 ADD SLOAD SWAP1 DUP1 PUSH1 0x1 ADD DUP1 SLOAD PUSH2 0x2BC SWAP1 PUSH2 0x129B JUMP JUMPDEST DUP1 PUSH1 0x1F ADD PUSH1 0x20 DUP1 SWAP2 DIV MUL PUSH1 0x20 ADD PUSH1 0x40 MLOAD SWAP1 DUP2 ADD PUSH1 0x40 MSTORE DUP1 SWAP3 SWAP2 SWAP1 DUP2 DUP2 MSTORE PUSH1 0x20 ADD DUP3 DUP1 SLOAD PUSH2 0x2E8 SWAP1 PUSH2 0x129B JUMP JUMPDEST DUP1 ISZERO PUSH2 0x335 JUMPI DUP1 PUSH1 0x1F LT PUSH2 0x30A JUMPI PUSH2 0x100 DUP1 DUP4 SLOAD DIV MUL DUP4 MSTORE SWAP2 PUSH1 0x20 ADD SWAP2 PUSH2 0x335 JUMP JUMPDEST DUP3 ADD SWAP2 SWAP1 PUSH1 0x0 MSTORE PUSH1 0x20 PUSH1 0x0 KECCAK256 SWAP1 JUMPDEST DUP2 SLOAD DUP2 MSTORE SWAP1 PUSH1 0x1 ADD SWAP1 PUSH1 0x20 ADD DUP1 DUP4 GT PUSH2 0x318 JUMPI DUP3 SWAP1 SUB PUSH1 0x1F AND DUP3 ADD SWAP2 JUMPDEST POP POP POP POP POP SWAP1 DUP1 PUSH1 0x2 ADD SLOAD SWAP1 DUP1 PUSH1 0x3 ADD SLOAD SWAP1 DUP1 PUSH1 0x4 ADD PUSH1 0x0 SWAP1 SLOAD SWAP1 PUSH2 0x100 EXP SWAP1 DIV PUSH20 0xFFFFFFFFFFFFFFFFFFFFFFFFFFFFFFFFFFFFFFFF AND SWAP1 DUP1 PUSH1 0x5 ADD SLOAD SWAP1 DUP1 PUSH1 0x6 ADD PUSH1 0x0 SWAP1 SLOAD SWAP1 PUSH2 0x100 EXP SWAP1 DIV PUSH1 0xFF AND SWAP1 POP DUP8 JUMP JUMPDEST PUSH1 0x0 DUP3 GT PUSH2 0x3CD JUMPI PUSH1 0x40 MLOAD PUSH32 0x8C379A000000000000000000000000000000000000000000000000000000000 DUP2 MSTORE PUSH1 0x4 ADD PUSH2 0x3C4 SWAP1 PUSH2 0x1318 JUMP JUMPDEST PUSH1 0x40 MLOAD DUP1 SWAP2 SUB SWAP1 REVERT JUMPDEST PUSH1 0x0 DUP2 GT PUSH2 0x410 JUMPI PUSH1 0x40 MLOAD PUSH32 0x8C379A000000000000000000000000000000000000000000000000000000000 DUP2 MSTORE PUSH1 0x4 ADD PUSH2 0x407 SWAP1 PUSH2 0x1384 JUMP JUMPDEST PUSH1 0x40 MLOAD DUP1 SWAP2 SUB SWAP1 REVERT JUMPDEST PUSH1 0x2 PUSH1 0x0 DUP2 SLOAD DUP1 SWAP3 SWAP2 SWAP1 PUSH2 0x423 SWAP1 PUSH2 0x13D3 JUMP JUMPDEST SWAP2 SWAP1 POP SSTORE POP PUSH1 0x40 MLOAD DUP1 PUSH1 0xE0 ADD PUSH1 0x40 MSTORE DUP1 PUSH1 0x2 SLOAD DUP2 MSTORE PUSH1 0x20 ADD DUP5 DUP2 MSTORE PUSH1 0x20 ADD DUP4 DUP2 MSTORE PUSH1 0x20 ADD DUP3 TIMESTAMP PUSH2 0x453 SWAP2 SWAP1 PUSH2 0x141B JUMP JUMPDEST DUP2 MSTORE PUSH1 0x20 ADD CALLER PUSH20 0xFFFFFFFFFFFFFFFFFFFFFFFFFFFFFFFFFFFFFFFF AND DUP2 MSTORE PUSH1 0x20 ADD PUSH1 0x0 DUP2 MSTORE PUSH1 0x20 ADD PUSH1 0x0 ISZERO ISZERO DUP2 MSTORE POP PUSH1 0x3 PUSH1 0x0 PUSH1 0x2 SLOAD DUP2 MSTORE PUSH1 0x20 ADD SWAP1 DUP2 MSTORE PUSH1 0x20 ADD PUSH1 0x0 KECCAK256 PUSH1 0x0 DUP3 ADD MLOAD DUP2 PUSH1 0x0 ADD SSTORE PUSH1 0x20 DUP3 ADD MLOAD DUP2 PUSH1 0x1 ADD SWAP1 DUP2 PUSH2 0x4B6 SWAP2 SWAP1 PUSH2 0x15F1 JUMP JUMPDEST POP PUSH1 0x40 DUP3 ADD MLOAD DUP2 PUSH1 0x2 ADD SSTORE PUSH1 0x60 DUP3 ADD MLOAD DUP2 PUSH1 0x3 ADD SSTORE PUSH1 0x80 DUP3 ADD MLOAD DUP2 PUSH1 0x4 ADD PUSH1 0x0 PUSH2 0x100 EXP DUP2 SLOAD DUP2 PUSH20 0xFFFFFFFFFFFFFFFFFFFFFFFFFFFFFFFFFFFFFFFF MUL NOT AND SWAP1 DUP4 PUSH20 0xFFFFFFFFFFFFFFFFFFFFFFFFFFFFFFFFFFFFFFFF AND MUL OR SWAP1 SSTORE POP PUSH1 0xA0 DUP3 ADD MLOAD DUP2 PUSH1 0x5 ADD SSTORE PUSH1 0xC0 DUP3 ADD MLOAD DUP2 PUSH1 0x6 ADD PUSH1 0x0 PUSH2 0x100 EXP DUP2 SLOAD DUP2 PUSH1 0xFF MUL NOT AND SWAP1 DUP4 ISZERO ISZERO MUL OR SWAP1 SSTORE POP SWAP1 POP POP PUSH32 0x55C246C9ACAC35DEFA7B5B11325208F9615273B139A7D1642A880AFB4568637E PUSH1 0x2 SLOAD DUP5 DUP5 DUP5 TIMESTAMP PUSH2 0x571 SWAP2 SWAP1 PUSH2 0x141B JUMP JUMPDEST CALLER PUSH1 0x40 MLOAD PUSH2 0x583 SWAP6 SWAP5 SWAP4 SWAP3 SWAP2 SWAP1 PUSH2 0x16C3 JUMP JUMPDEST PUSH1 0x40 MLOAD DUP1 SWAP2 SUB SWAP1 LOG1 POP POP POP JUMP JUMPDEST PUSH1 0x4 PUSH1 0x20 MSTORE DUP2 PUSH1 0x0 MSTORE PUSH1 0x40 PUSH1 0x0 KECCAK256 PUSH1 0x20 MSTORE DUP1 PUSH1 0x0 MSTORE PUSH1 0x40 PUSH1 0x0 KECCAK256 PUSH1 0x0 SWAP2 POP SWAP2 POP POP SLOAD DUP2 JUMP JUMPDEST PUSH1 0x0 PUSH1 0x60 PUSH1 0x0 DUP1 PUSH1 0x0 DUP1 PUSH1 0x0 DUP1 PUSH1 0x3 PUSH1 0x0 DUP11 DUP2 MSTORE PUSH1 0x20 ADD SWAP1 DUP2 MSTORE PUSH1 0x20 ADD PUSH1 0x0 KECCAK256 SWAP1 POP DUP1 PUSH1 0x0 ADD SLOAD DUP2 PUSH1 0x1 ADD DUP3 PUSH1 0x2 ADD SLOAD DUP4 PUSH1 0x3 ADD SLOAD DUP5 PUSH1 0x4 ADD PUSH1 0x0 SWAP1 SLOAD SWAP1 PUSH2 0x100 EXP SWAP1 DIV PUSH20 0xFFFFFFFFFFFFFFFFFFFFFFFFFFFFFFFFFFFFFFFF AND DUP6 PUSH1 0x5 ADD SLOAD DUP7 PUSH1 0x6 ADD PUSH1 0x0 SWAP1 SLOAD SWAP1 PUSH2 0x100 EXP SWAP1 DIV PUSH1 0xFF AND DUP6 DUP1 SLOAD PUSH2 0x632 SWAP1 PUSH2 0x129B JUMP JUMPDEST DUP1 PUSH1 0x1F ADD PUSH1 0x20 DUP1 SWAP2 DIV MUL PUSH1 0x20 ADD PUSH1 0x40 MLOAD SWAP1 DUP2 ADD PUSH1 0x40 MSTORE DUP1 SWAP3 SWAP2 SWAP1 DUP2 DUP2 MSTORE PUSH1 0x20 ADD DUP3 DUP1 SLOAD PUSH2 0x65E SWAP1 PUSH2 0x129B JUMP JUMPDEST DUP1 ISZERO PUSH2 0x6AB JUMPI DUP1 PUSH1 0x1F LT PUSH2 0x680 JUMPI PUSH2 0x100 DUP1 DUP4 SLOAD DIV MUL DUP4 MSTORE SWAP2 PUSH1 0x20 ADD SWAP2 PUSH2 0x6AB JUMP JUMPDEST DUP3 ADD SWAP2 SWAP1 PUSH1 0x0 MSTORE PUSH1 0x20 PUSH1 0x0 KECCAK256 SWAP1 JUMPDEST DUP2 SLOAD DUP2 MSTORE SWAP1 PUSH1 0x1 ADD SWAP1 PUSH1 0x20 ADD DUP1 DUP4 GT PUSH2 0x68E JUMPI DUP3 SWAP1 SUB PUSH1 0x1F AND DUP3 ADD SWAP2 JUMPDEST POP POP POP POP POP SWAP6 POP SWAP8 POP SWAP8 POP SWAP8 POP SWAP8 POP SWAP8 POP SWAP8 POP SWAP8 POP POP SWAP2 SWAP4 SWAP6 SWAP8 SWAP1 SWAP3 SWAP5 SWAP7 POP JUMP JUMPDEST PUSH1 0x0 PUSH1 0x3 PUSH1 0x0 DUP4 DUP2 MSTORE PUSH1 0x20 ADD SWAP1 DUP2 MSTORE PUSH1 0x20 ADD PUSH1 0x0 KECCAK256 SWAP1 POP DUP1 PUSH1 0x3 ADD SLOAD TIMESTAMP LT ISZERO DUP1 PUSH2 0x6FE JUMPI POP DUP1 PUSH1 0x2 ADD SLOAD DUP2 PUSH1 0x5 ADD SLOAD LT ISZERO JUMPDEST PUSH2 0x73D JUMPI PUSH1 0x40 MLOAD PUSH32 0x8C379A000000000000000000000000000000000000000000000000000000000 DUP2 MSTORE PUSH1 0x4 ADD PUSH2 0x734 SWAP1 PUSH2 0x178F JUMP JUMPDEST PUSH1 0x40 MLOAD DUP1 SWAP2 SUB SWAP1 REVERT JUMPDEST DUP1 PUSH1 0x6 ADD PUSH1 0x0 SWAP1 SLOAD SWAP1 PUSH2 0x100 EXP SWAP1 DIV PUSH1 0xFF AND ISZERO PUSH2 0x78F JUMPI PUSH1 0x40 MLOAD PUSH32 0x8C379A000000000000000000000000000000000000000000000000000000000 DUP2 MSTORE PUSH1 0x4 ADD PUSH2 0x786 SWAP1 PUSH2 0x17FB JUMP JUMPDEST PUSH1 0x40 MLOAD DUP1 SWAP2 SUB SWAP1 REVERT JUMPDEST PUSH1 0x1 DUP2 PUSH1 0x6 ADD PUSH1 0x0 PUSH2 0x100 EXP DUP2 SLOAD DUP2 PUSH1 0xFF MUL NOT AND SWAP1 DUP4 ISZERO ISZERO MUL OR SWAP1 SSTORE POP PUSH1 0x0 DUP2 PUSH1 0x5 ADD SLOAD GT ISZERO PUSH2 0x829 JUMPI DUP1 PUSH1 0x4 ADD PUSH1 0x0 SWAP1 SLOAD SWAP1 PUSH2 0x100 EXP SWAP1 DIV PUSH20 0xFFFFFFFFFFFFFFFFFFFFFFFFFFFFFFFFFFFFFFFF AND PUSH20 0xFFFFFFFFFFFFFFFFFFFFFFFFFFFFFFFFFFFFFFFF AND PUSH2 0x8FC DUP3 PUSH1 0x5 ADD SLOAD SWAP1 DUP2 ISZERO MUL SWAP1 PUSH1 0x40 MLOAD PUSH1 0x0 PUSH1 0x40 MLOAD DUP1 DUP4 SUB DUP2 DUP6 DUP9 DUP9 CALL SWAP4 POP POP POP POP ISZERO DUP1 ISZERO PUSH2 0x827 JUMPI RETURNDATASIZE PUSH1 0x0 DUP1 RETURNDATACOPY RETURNDATASIZE PUSH1 0x0 REVERT JUMPDEST POP JUMPDEST PUSH32 0x97FF17358FF164756139CC936B31534C4A39FF7D10563278088E003121E53187 DUP3 DUP3 PUSH1 0x5 ADD SLOAD PUSH1 0x40 MLOAD PUSH2 0x85E SWAP3 SWAP2 SWAP1 PUSH2 0x181B JUMP JUMPDEST PUSH1 0x40 MLOAD DUP1 SWAP2 SUB SWAP1 LOG1 POP POP JUMP JUMPDEST PUSH2 0x872 PUSH2 0xBAD JUMP JUMPDEST PUSH2 0x87C PUSH1 0x0 PUSH2 0xC34 JUMP JUMPDEST JUMP JUMPDEST PUSH1 0x2 SLOAD DUP2 JUMP JUMPDEST PUSH1 0x0 DUP1 PUSH1 0x0 SWAP1 SLOAD SWAP1 PUSH2 0x100 EXP SWAP1 DIV PUSH20 0xFFFFFFFFFFFFFFFFFFFFFFFFFFFFFFFFFFFFFFFF AND SWAP1 POP SWAP1 JUMP JUMPDEST PUSH1 0x0 PUSH1 0x3 PUSH1 0x0 DUP4 DUP2 MSTORE PUSH1 0x20 ADD SWAP1 DUP2 MSTORE PUSH1 0x20 ADD PUSH1 0x0 KECCAK256 SWAP1 POP DUP1 PUSH1 0x3 ADD SLOAD TIMESTAMP LT PUSH2 0x90A JUMPI PUSH1 0x40 MLOAD PUSH32 0x8C379A000000000000000000000000000000000000000000000000000000000 DUP2 MSTORE PUSH1 0x4 ADD PUSH2 0x901 SWAP1 PUSH2 0x1890 JUMP JUMPDEST PUSH1 0x40 MLOAD DUP1 SWAP2 SUB SWAP1 REVERT JUMPDEST DUP1 PUSH1 0x6 ADD PUSH1 0x0 SWAP1 SLOAD SWAP1 PUSH2 0x100 EXP SWAP1 DIV PUSH1 0xFF AND ISZERO PUSH2 0x95C JUMPI PUSH1 0x40 MLOAD PUSH32 0x8C379A000000000000000000000000000000000000000000000000000000000 DUP2 MSTORE PUSH1 0x4 ADD PUSH2 0x953 SWAP1 PUSH2 0x17FB JUMP JUMPDEST PUSH1 0x40 MLOAD DUP1 SWAP2 SUB SWAP1 REVERT JUMPDEST PUSH1 0x0 CALLVALUE GT PUSH2 0x99F JUMPI PUSH1 0x40 MLOAD PUSH32 0x8C379A000000000000000000000000000000000000000000000000000000000 DUP2 MSTORE PUSH1 0x4 ADD PUSH2 0x996 SWAP1 PUSH2 0x1922 JUMP JUMPDEST PUSH1 0x40 MLOAD DUP1 SWAP2 SUB SWAP1 REVERT JUMPDEST CALLVALUE DUP2 PUSH1 0x5 ADD PUSH1 0x0 DUP3 DUP3 SLOAD PUSH2 0x9B3 SWAP2 SWAP1 PUSH2 0x141B JUMP JUMPDEST SWAP3 POP POP DUP2 SWAP1 SSTORE POP CALLVALUE PUSH1 0x4 PUSH1 0x0 DUP5 DUP2 MSTORE PUSH1 0x20 ADD SWAP1 DUP2 MSTORE PUSH1 0x20 ADD PUSH1 0x0 KECCAK256 PUSH1 0x0 CALLER PUSH20 0xFFFFFFFFFFFFFFFFFFFFFFFFFFFFFFFFFFFFFFFF AND PUSH20 0xFFFFFFFFFFFFFFFFFFFFFFFFFFFFFFFFFFFFFFFF AND DUP2 MSTORE PUSH1 0x20 ADD SWAP1 DUP2 MSTORE PUSH1 0x20 ADD PUSH1 0x0 KECCAK256 PUSH1 0x0 DUP3 DUP3 SLOAD PUSH2 0xA1A SWAP2 SWAP1 PUSH2 0x141B JUMP JUMPDEST SWAP3 POP POP DUP2 SWAP1 SSTORE POP PUSH1 0x0 PUSH1 0x64 CALLVALUE PUSH2 0xA30 SWAP2 SWAP1 PUSH2 0x1942 JUMP JUMPDEST SWAP1 POP PUSH1 0x1 PUSH1 0x0 SWAP1 SLOAD SWAP1 PUSH2 0x100 EXP SWAP1 DIV PUSH20 0xFFFFFFFFFFFFFFFFFFFFFFFFFFFFFFFFFFFFFFFF AND PUSH20 0xFFFFFFFFFFFFFFFFFFFFFFFFFFFFFFFFFFFFFFFF AND PUSH4 0x40C10F19 CALLER DUP4 PUSH1 0x40 MLOAD DUP4 PUSH4 0xFFFFFFFF AND PUSH1 0xE0 SHL DUP2 MSTORE PUSH1 0x4 ADD PUSH2 0xA8F SWAP3 SWAP2 SWAP1 PUSH2 0x1984 JUMP JUMPDEST PUSH1 0x0 PUSH1 0x40 MLOAD DUP1 DUP4 SUB DUP2 PUSH1 0x0 DUP8 DUP1 EXTCODESIZE ISZERO DUP1 ISZERO PUSH2 0xAA9 JUMPI PUSH1 0x0 DUP1 REVERT JUMPDEST POP GAS CALL ISZERO DUP1 ISZERO PUSH2 0xABD JUMPI RETURNDATASIZE PUSH1 0x0 DUP1 RETURNDATACOPY RETURNDATASIZE PUSH1 0x0 REVERT JUMPDEST POP POP POP POP PUSH32 0xA4A91237423E0A1766A761C7CB029311D8B95D6B1B81DB1B949A70C98B4E08E DUP4 CALLER CALLVALUE PUSH1 0x40 MLOAD PUSH2 0xAF4 SWAP4 SWAP3 SWAP2 SWAP1 PUSH2 0x19AD JUMP JUMPDEST PUSH1 0x40 MLOAD DUP1 SWAP2 SUB SWAP1 LOG1 POP POP POP JUMP JUMPDEST PUSH2 0xB09 PUSH2 0xBAD JUMP JUMPDEST PUSH1 0x0 PUSH20 0xFFFFFFFFFFFFFFFFFFFFFFFFFFFFFFFFFFFFFFFF AND DUP2 PUSH20 0xFFFFFFFFFFFFFFFFFFFFFFFFFFFFFFFFFFFFFFFF AND SUB PUSH2 0xB7B JUMPI PUSH1 0x0 PUSH1 0x40 MLOAD PUSH32 0x1E4FBDF700000000000000000000000000000000000000000000000000000000 DUP2 MSTORE PUSH1 0x4 ADD PUSH2 0xB72 SWAP2 SWAP1 PUSH2 0x11AA JUMP JUMPDEST PUSH1 0x40 MLOAD DUP1 SWAP2 SUB SWAP1 REVERT JUMPDEST PUSH2 0xB84 DUP2 PUSH2 0xC34 JUMP JUMPDEST POP JUMP JUMPDEST PUSH1 0x1 PUSH1 0x0 SWAP1 SLOAD SWAP1 PUSH2 0x100 EXP SWAP1 DIV PUSH20 0xFFFFFFFFFFFFFFFFFFFFFFFFFFFFFFFFFFFFFFFF AND DUP2 JUMP JUMPDEST PUSH2 0xBB5 PUSH2 0xCF8 JUMP JUMPDEST PUSH20 0xFFFFFFFFFFFFFFFFFFFFFFFFFFFFFFFFFFFFFFFF AND PUSH2 0xBD3 PUSH2 0x884 JUMP JUMPDEST PUSH20 0xFFFFFFFFFFFFFFFFFFFFFFFFFFFFFFFFFFFFFFFF AND EQ PUSH2 0xC32 JUMPI PUSH2 0xBF6 PUSH2 0xCF8 JUMP JUMPDEST PUSH1 0x40 MLOAD PUSH32 0x118CDAA700000000000000000000000000000000000000000000000000000000 DUP2 MSTORE PUSH1 0x4 ADD PUSH2 0xC29 SWAP2 SWAP1 PUSH2 0x11AA JUMP JUMPDEST PUSH1 0x40 MLOAD DUP1 SWAP2 SUB SWAP1 REVERT JUMPDEST JUMP JUMPDEST PUSH1 0x0 DUP1 PUSH1 0x0 SWAP1 SLOAD SWAP1 PUSH2 0x100 EXP SWAP1 DIV PUSH20 0xFFFFFFFFFFFFFFFFFFFFFFFFFFFFFFFFFFFFFFFF AND SWAP1 POP DUP2 PUSH1 0x0 DUP1 PUSH2 0x100 EXP DUP2 SLOAD DUP2 PUSH20 0xFFFFFFFFFFFFFFFFFFFFFFFFFFFFFFFFFFFFFFFF MUL NOT AND SWAP1 DUP4 PUSH20 0xFFFFFFFFFFFFFFFFFFFFFFFFFFFFFFFFFFFFFFFF AND MUL OR SWAP1 SSTORE POP DUP2 PUSH20 0xFFFFFFFFFFFFFFFFFFFFFFFFFFFFFFFFFFFFFFFF AND DUP2 PUSH20 0xFFFFFFFFFFFFFFFFFFFFFFFFFFFFFFFFFFFFFFFF AND PUSH32 0x8BE0079C531659141344CD1FD0A4F28419497F9722A3DAAFE3B4186F6B6457E0 PUSH1 0x40 MLOAD PUSH1 0x40 MLOAD DUP1 SWAP2 SUB SWAP1 LOG3 POP POP JUMP JUMPDEST PUSH1 0x0 CALLER SWAP1 POP SWAP1 JUMP JUMPDEST PUSH1 0x0 PUSH1 0x40 MLOAD SWAP1 POP SWAP1 JUMP JUMPDEST PUSH1 0x0 DUP1 REVERT JUMPDEST PUSH1 0x0 DUP1 REVERT JUMPDEST PUSH1 0x0 DUP2 SWAP1 POP SWAP2 SWAP1 POP JUMP JUMPDEST PUSH2 0xD27 DUP2 PUSH2 0xD14 JUMP JUMPDEST DUP2 EQ PUSH2 0xD32 JUMPI PUSH1 0x0 DUP1 REVERT JUMPDEST POP JUMP JUMPDEST PUSH1 0x0 DUP2 CALLDATALOAD SWAP1 POP PUSH2 0xD44 DUP2 PUSH2 0xD1E JUMP JUMPDEST SWAP3 SWAP2 POP POP JUMP JUMPDEST PUSH1 0x0 PUSH1 0x20 DUP3 DUP5 SUB SLT ISZERO PUSH2 0xD60 JUMPI PUSH2 0xD5F PUSH2 0xD0A JUMP JUMPDEST JUMPDEST PUSH1 0x0 PUSH2 0xD6E DUP5 DUP3 DUP6 ADD PUSH2 0xD35 JUMP JUMPDEST SWAP2 POP POP SWAP3 SWAP2 POP POP JUMP JUMPDEST PUSH2 0xD80 DUP2 PUSH2 0xD14 JUMP JUMPDEST DUP3 MSTORE POP POP JUMP JUMPDEST PUSH1 0x0 DUP2 MLOAD SWAP1 POP SWAP2 SWAP1 POP JUMP JUMPDEST PUSH1 0x0 DUP3 DUP3 MSTORE PUSH1 0x20 DUP3 ADD SWAP1 POP SWAP3 SWAP2 POP POP JUMP JUMPDEST PUSH1 0x0 JUMPDEST DUP4 DUP2 LT ISZERO PUSH2 0xDC0 JUMPI DUP1 DUP3 ADD MLOAD DUP2 DUP5 ADD MSTORE PUSH1 0x20 DUP2 ADD SWAP1 POP PUSH2 0xDA5 JUMP JUMPDEST PUSH1 0x0 DUP5 DUP5 ADD MSTORE POP POP POP POP JUMP JUMPDEST PUSH1 0x0 PUSH1 0x1F NOT PUSH1 0x1F DUP4 ADD AND SWAP1 POP SWAP2 SWAP1 POP JUMP JUMPDEST PUSH1 0x0 PUSH2 0xDE8 DUP3 PUSH2 0xD86 JUMP JUMPDEST PUSH2 0xDF2 DUP2 DUP6 PUSH2 0xD91 JUMP JUMPDEST SWAP4 POP PUSH2 0xE02 DUP2 DUP6 PUSH1 0x20 DUP7 ADD PUSH2 0xDA2 JUMP JUMPDEST PUSH2 0xE0B DUP2 PUSH2 0xDCC JUMP JUMPDEST DUP5 ADD SWAP2 POP POP SWAP3 SWAP2 POP POP JUMP JUMPDEST PUSH1 0x0 PUSH20 0xFFFFFFFFFFFFFFFFFFFFFFFFFFFFFFFFFFFFFFFF DUP3 AND SWAP1 POP SWAP2 SWAP1 POP JUMP JUMPDEST PUSH1 0x0 PUSH2 0xE41 DUP3 PUSH2 0xE16 JUMP JUMPDEST SWAP1 POP SWAP2 SWAP1 POP JUMP JUMPDEST PUSH2 0xE51 DUP2 PUSH2 0xE36 JUMP JUMPDEST DUP3 MSTORE POP POP JUMP JUMPDEST PUSH1 0x0 DUP2 ISZERO ISZERO SWAP1 POP SWAP2 SWAP1 POP JUMP JUMPDEST PUSH2 0xE6C DUP2 PUSH2 0xE57 JUMP JUMPDEST DUP3 MSTORE POP POP JUMP JUMPDEST PUSH1 0x0 PUSH1 0xE0 DUP3 ADD SWAP1 POP PUSH2 0xE87 PUSH1 0x0 DUP4 ADD DUP11 PUSH2 0xD77 JUMP JUMPDEST DUP2 DUP2 SUB PUSH1 0x20 DUP4 ADD MSTORE PUSH2 0xE99 DUP2 DUP10 PUSH2 0xDDD JUMP JUMPDEST SWAP1 POP PUSH2 0xEA8 PUSH1 0x40 DUP4 ADD DUP9 PUSH2 0xD77 JUMP JUMPDEST PUSH2 0xEB5 PUSH1 0x60 DUP4 ADD DUP8 PUSH2 0xD77 JUMP JUMPDEST PUSH2 0xEC2 PUSH1 0x80 DUP4 ADD DUP7 PUSH2 0xE48 JUMP JUMPDEST PUSH2 0xECF PUSH1 0xA0 DUP4 ADD DUP6 PUSH2 0xD77 JUMP JUMPDEST PUSH2 0xEDC PUSH1 0xC0 DUP4 ADD DUP5 PUSH2 0xE63 JUMP JUMPDEST SWAP9 SWAP8 POP POP POP POP POP POP POP POP JUMP JUMPDEST PUSH1 0x0 DUP1 REVERT JUMPDEST PUSH1 0x0 DUP1 REVERT JUMPDEST PUSH32 0x4E487B7100000000000000000000000000000000000000000000000000000000 PUSH1 0x0 MSTORE PUSH1 0x41 PUSH1 0x4 MSTORE PUSH1 0x24 PUSH1 0x0 REVERT JUMPDEST PUSH2 0xF2A DUP3 PUSH2 0xDCC JUMP JUMPDEST DUP2 ADD DUP2 DUP2 LT PUSH8 0xFFFFFFFFFFFFFFFF DUP3 GT OR ISZERO PUSH2 0xF49 JUMPI PUSH2 0xF48 PUSH2 0xEF2 JUMP JUMPDEST JUMPDEST DUP1 PUSH1 0x40 MSTORE POP POP POP JUMP JUMPDEST PUSH1 0x0 PUSH2 0xF5C PUSH2 0xD00 JUMP JUMPDEST SWAP1 POP PUSH2 0xF68 DUP3 DUP3 PUSH2 0xF21 JUMP JUMPDEST SWAP2 SWAP1 POP JUMP JUMPDEST PUSH1 0x0 PUSH8 0xFFFFFFFFFFFFFFFF DUP3 GT ISZERO PUSH2 0xF88 JUMPI PUSH2 0xF87 PUSH2 0xEF2 JUMP JUMPDEST JUMPDEST PUSH2 0xF91 DUP3 PUSH2 0xDCC JUMP JUMPDEST SWAP1 POP PUSH1 0x20 DUP2 ADD SWAP1 POP SWAP2 SWAP1 POP JUMP JUMPDEST DUP3 DUP2 DUP4 CALLDATACOPY PUSH1 0x0 DUP4 DUP4 ADD MSTORE POP POP POP JUMP JUMPDEST PUSH1 0x0 PUSH2 0xFC0 PUSH2 0xFBB DUP5 PUSH2 0xF6D JUMP JUMPDEST PUSH2 0xF52 JUMP JUMPDEST SWAP1 POP DUP3 DUP2 MSTORE PUSH1 0x20 DUP2 ADD DUP5 DUP5 DUP5 ADD GT ISZERO PUSH2 0xFDC JUMPI PUSH2 0xFDB PUSH2 0xEED JUMP JUMPDEST JUMPDEST PUSH2 0xFE7 DUP5 DUP3 DUP6 PUSH2 0xF9E JUMP JUMPDEST POP SWAP4 SWAP3 POP POP POP JUMP JUMPDEST PUSH1 0x0 DUP3 PUSH1 0x1F DUP4 ADD SLT PUSH2 0x1004 JUMPI PUSH2 0x1003 PUSH2 0xEE8 JUMP JUMPDEST JUMPDEST DUP2 CALLDATALOAD PUSH2 0x1014 DUP5 DUP3 PUSH1 0x20 DUP7 ADD PUSH2 0xFAD JUMP JUMPDEST SWAP2 POP POP SWAP3 SWAP2 POP POP JUMP JUMPDEST PUSH1 0x0 DUP1 PUSH1 0x0 PUSH1 0x60 DUP5 DUP7 SUB SLT ISZERO PUSH2 0x1036 JUMPI PUSH2 0x1035 PUSH2 0xD0A JUMP JUMPDEST JUMPDEST PUSH1 0x0 DUP5 ADD CALLDATALOAD PUSH8 0xFFFFFFFFFFFFFFFF DUP2 GT ISZERO PUSH2 0x1054 JUMPI PUSH2 0x1053 PUSH2 0xD0F JUMP JUMPDEST JUMPDEST PUSH2 0x1060 DUP7 DUP3 DUP8 ADD PUSH2 0xFEF JUMP JUMPDEST SWAP4 POP POP PUSH1 0x20 PUSH2 0x1071 DUP7 DUP3 DUP8 ADD PUSH2 0xD35 JUMP JUMPDEST SWAP3 POP POP PUSH1 0x40 PUSH2 0x1082 DUP7 DUP3 DUP8 ADD PUSH2 0xD35 JUMP JUMPDEST SWAP2 POP POP SWAP3 POP SWAP3 POP SWAP3 JUMP JUMPDEST PUSH1 0x0 PUSH2 0x1097 DUP3 PUSH2 0xE16 JUMP JUMPDEST SWAP1 POP SWAP2 SWAP1 POP JUMP JUMPDEST PUSH2 0x10A7 DUP2 PUSH2 0x108C JUMP JUMPDEST DUP2 EQ PUSH2 0x10B2 JUMPI PUSH1 0x0 DUP1 REVERT JUMPDEST POP JUMP JUMPDEST PUSH1 0x0 DUP2 CALLDATALOAD SWAP1 POP PUSH2 0x10C4 DUP2 PUSH2 0x109E JUMP JUMPDEST SWAP3 SWAP2 POP POP JUMP JUMPDEST PUSH1 0x0 DUP1 PUSH1 0x40 DUP4 DUP6 SUB SLT ISZERO PUSH2 0x10E1 JUMPI PUSH2 0x10E0 PUSH2 0xD0A JUMP JUMPDEST JUMPDEST PUSH1 0x0 PUSH2 0x10EF DUP6 DUP3 DUP7 ADD PUSH2 0xD35 JUMP JUMPDEST SWAP3 POP POP PUSH1 0x20 PUSH2 0x1100 DUP6 DUP3 DUP7 ADD PUSH2 0x10B5 JUMP JUMPDEST SWAP2 POP POP SWAP3 POP SWAP3 SWAP1 POP JUMP JUMPDEST PUSH1 0x0 PUSH1 0x20 DUP3 ADD SWAP1 POP PUSH2 0x111F PUSH1 0x0 DUP4 ADD DUP5 PUSH2 0xD77 JUMP JUMPDEST SWAP3 SWAP2 POP POP JUMP JUMPDEST PUSH2 0x112E DUP2 PUSH2 0x108C JUMP JUMPDEST DUP3 MSTORE POP POP JUMP JUMPDEST PUSH1 0x0 PUSH1 0xE0 DUP3 ADD SWAP1 POP PUSH2 0x1149 PUSH1 0x0 DUP4 ADD DUP11 PUSH2 0xD77 JUMP JUMPDEST DUP2 DUP2 SUB PUSH1 0x20 DUP4 ADD MSTORE PUSH2 0x115B DUP2 DUP10 PUSH2 0xDDD JUMP JUMPDEST SWAP1 POP PUSH2 0x116A PUSH1 0x40 DUP4 ADD DUP9 PUSH2 0xD77 JUMP JUMPDEST PUSH2 0x1177 PUSH1 0x60 DUP4 ADD DUP8 PUSH2 0xD77 JUMP JUMPDEST PUSH2 0x1184 PUSH1 0x80 DUP4 ADD DUP7 PUSH2 0x1125 JUMP JUMPDEST PUSH2 0x1191 PUSH1 0xA0 DUP4 ADD DUP6 PUSH2 0xD77 JUMP JUMPDEST PUSH2 0x119E PUSH1 0xC0 DUP4 ADD DUP5 PUSH2 0xE63 JUMP JUMPDEST SWAP9 SWAP8 POP POP POP POP POP POP POP POP JUMP JUMPDEST PUSH1 0x0 PUSH1 0x20 DUP3 ADD SWAP1 POP PUSH2 0x11BF PUSH1 0x0 DUP4 ADD DUP5 PUSH2 0x1125 JUMP JUMPDEST SWAP3 SWAP2 POP POP JUMP JUMPDEST PUSH1 0x0 PUSH1 0x20 DUP3 DUP5 SUB SLT ISZERO PUSH2 0x11DB JUMPI PUSH2 0x11DA PUSH2 0xD0A JUMP JUMPDEST JUMPDEST PUSH1 0x0 PUSH2 0x11E9 DUP5 DUP3 DUP6 ADD PUSH2 0x10B5 JUMP JUMPDEST SWAP2 POP POP SWAP3 SWAP2 POP POP JUMP JUMPDEST PUSH1 0x0 DUP2 SWAP1 POP SWAP2 SWAP1 POP JUMP JUMPDEST PUSH1 0x0 PUSH2 0x1217 PUSH2 0x1212 PUSH2 0x120D DUP5 PUSH2 0xE16 JUMP JUMPDEST PUSH2 0x11F2 JUMP JUMPDEST PUSH2 0xE16 JUMP JUMPDEST SWAP1 POP SWAP2 SWAP1 POP JUMP JUMPDEST PUSH1 0x0 PUSH2 0x1229 DUP3 PUSH2 0x11FC JUMP JUMPDEST SWAP1 POP SWAP2 SWAP1 POP JUMP JUMPDEST PUSH1 0x0 PUSH2 0x123B DUP3 PUSH2 0x121E JUMP JUMPDEST SWAP1 POP SWAP2 SWAP1 POP JUMP JUMPDEST PUSH2 0x124B DUP2 PUSH2 0x1230 JUMP JUMPDEST DUP3 MSTORE POP POP JUMP JUMPDEST PUSH1 0x0 PUSH1 0x20 DUP3 ADD SWAP1 POP PUSH2 0x1266 PUSH1 0x0 DUP4 ADD DUP5 PUSH2 0x1242 JUMP JUMPDEST SWAP3 SWAP2 POP POP JUMP JUMPDEST PUSH32 0x4E487B7100000000000000000000000000000000000000000000000000000000 PUSH1 0x0 MSTORE PUSH1 0x22 PUSH1 0x4 MSTORE PUSH1 0x24 PUSH1 0x0 REVERT JUMPDEST PUSH1 0x0 PUSH1 0x2 DUP3 DIV SWAP1 POP PUSH1 0x1 DUP3 AND DUP1 PUSH2 0x12B3 JUMPI PUSH1 0x7F DUP3 AND SWAP2 POP JUMPDEST PUSH1 0x20 DUP3 LT DUP2 SUB PUSH2 0x12C6 JUMPI PUSH2 0x12C5 PUSH2 0x126C JUMP JUMPDEST JUMPDEST POP SWAP2 SWAP1 POP JUMP JUMPDEST PUSH32 0x476F616C206D7573742062652067726561746572207468616E20300000000000 PUSH1 0x0 DUP3 ADD MSTORE POP JUMP JUMPDEST PUSH1 0x0 PUSH2 0x1302 PUSH1 0x1B DUP4 PUSH2 0xD91 JUMP JUMPDEST SWAP2 POP PUSH2 0x130D DUP3 PUSH2 0x12CC JUMP JUMPDEST PUSH1 0x20 DUP3 ADD SWAP1 POP SWAP2 SWAP1 POP JUMP JUMPDEST PUSH1 0x0 PUSH1 0x20 DUP3 ADD SWAP1 POP DUP2 DUP2 SUB PUSH1 0x0 DUP4 ADD MSTORE PUSH2 0x1331 DUP2 PUSH2 0x12F5 JUMP JUMPDEST SWAP1 POP SWAP2 SWAP1 POP JUMP JUMPDEST PUSH32 0x4475726174696F6E206D7573742062652067726561746572207468616E203000 PUSH1 0x0 DUP3 ADD MSTORE POP JUMP JUMPDEST PUSH1 0x0 PUSH2 0x136E PUSH1 0x1F DUP4 PUSH2 0xD91 JUMP JUMPDEST SWAP2 POP PUSH2 0x1379 DUP3 PUSH2 0x1338 JUMP JUMPDEST PUSH1 0x20 DUP3 ADD SWAP1 POP SWAP2 SWAP1 POP JUMP JUMPDEST PUSH1 0x0 PUSH1 0x20 DUP3 ADD SWAP1 POP DUP2 DUP2 SUB PUSH1 0x0 DUP4 ADD MSTORE PUSH2 0x139D DUP2 PUSH2 0x1361 JUMP JUMPDEST SWAP1 POP SWAP2 SWAP1 POP JUMP JUMPDEST PUSH32 0x4E487B7100000000000000000000000000000000000000000000000000000000 PUSH1 0x0 MSTORE PUSH1 0x11 PUSH1 0x4 MSTORE PUSH1 0x24 PUSH1 0x0 REVERT JUMPDEST PUSH1 0x0 PUSH2 0x13DE DUP3 PUSH2 0xD14 JUMP JUMPDEST SWAP2 POP PUSH32 0xFFFFFFFFFFFFFFFFFFFFFFFFFFFFFFFFFFFFFFFFFFFFFFFFFFFFFFFFFFFFFFFF DUP3 SUB PUSH2 0x1410 JUMPI PUSH2 0x140F PUSH2 0x13A4 JUMP JUMPDEST JUMPDEST PUSH1 0x1 DUP3 ADD SWAP1 POP SWAP2 SWAP1 POP JUMP JUMPDEST PUSH1 0x0 PUSH2 0x1426 DUP3 PUSH2 0xD14 JUMP JUMPDEST SWAP2 POP PUSH2 0x1431 DUP4 PUSH2 0xD14 JUMP JUMPDEST SWAP3 POP DUP3 DUP3 ADD SWAP1 POP DUP1 DUP3 GT ISZERO PUSH2 0x1449 JUMPI PUSH2 0x1448 PUSH2 0x13A4 JUMP JUMPDEST JUMPDEST SWAP3 SWAP2 POP POP JUMP JUMPDEST PUSH1 0x0 DUP2 SWAP1 POP DUP2 PUSH1 0x0 MSTORE PUSH1 0x20 PUSH1 0x0 KECCAK256 SWAP1 POP SWAP2 SWAP1 POP JUMP JUMPDEST PUSH1 0x0 PUSH1 0x20 PUSH1 0x1F DUP4 ADD DIV SWAP1 POP SWAP2 SWAP1 POP JUMP JUMPDEST PUSH1 0x0 DUP3 DUP3 SHL SWAP1 POP SWAP3 SWAP2 POP POP JUMP JUMPDEST PUSH1 0x0 PUSH1 0x8 DUP4 MUL PUSH2 0x14B1 PUSH32 0xFFFFFFFFFFFFFFFFFFFFFFFFFFFFFFFFFFFFFFFFFFFFFFFFFFFFFFFFFFFFFFFF DUP3 PUSH2 0x1474 JUMP JUMPDEST PUSH2 0x14BB DUP7 DUP4 PUSH2 0x1474 JUMP JUMPDEST SWAP6 POP DUP1 NOT DUP5 AND SWAP4 POP DUP1 DUP7 AND DUP5 OR SWAP3 POP POP POP SWAP4 SWAP3 POP POP POP JUMP JUMPDEST PUSH1 0x0 PUSH2 0x14EE PUSH2 0x14E9 PUSH2 0x14E4 DUP5 PUSH2 0xD14 JUMP JUMPDEST PUSH2 0x11F2 JUMP JUMPDEST PUSH2 0xD14 JUMP JUMPDEST SWAP1 POP SWAP2 SWAP1 POP JUMP JUMPDEST PUSH1 0x0 DUP2 SWAP1 POP SWAP2 SWAP1 POP JUMP JUMPDEST PUSH2 0x1508 DUP4 PUSH2 0x14D3 JUMP JUMPDEST PUSH2 0x151C PUSH2 0x1514 DUP3 PUSH2 0x14F5 JUMP JUMPDEST DUP5 DUP5 SLOAD PUSH2 0x1481 JUMP JUMPDEST DUP3 SSTORE POP POP POP POP JUMP JUMPDEST PUSH1 0x0 SWAP1 JUMP JUMPDEST PUSH2 0x1531 PUSH2 0x1524 JUMP JUMPDEST PUSH2 0x153C DUP2 DUP5 DUP5 PUSH2 0x14FF JUMP JUMPDEST POP POP POP JUMP JUMPDEST JUMPDEST DUP2 DUP2 LT ISZERO PUSH2 0x1560 JUMPI PUSH2 0x1555 PUSH1 0x0 DUP3 PUSH2 0x1529 JUMP JUMPDEST PUSH1 0x1 DUP2 ADD SWAP1 POP PUSH2 0x1542 JUMP JUMPDEST POP POP JUMP JUMPDEST PUSH1 0x1F DUP3 GT ISZERO PUSH2 0x15A5 JUMPI PUSH2 0x1576 DUP2 PUSH2 0x144F JUMP JUMPDEST PUSH2 0x157F DUP5 PUSH2 0x1464 JUMP JUMPDEST DUP2 ADD PUSH1 0x20 DUP6 LT ISZERO PUSH2 0x158E JUMPI DUP2 SWAP1 POP JUMPDEST PUSH2 0x15A2 PUSH2 0x159A DUP6 PUSH2 0x1464 JUMP JUMPDEST DUP4 ADD DUP3 PUSH2 0x1541 JUMP JUMPDEST POP POP JUMPDEST POP POP POP JUMP JUMPDEST PUSH1 0x0 DUP3 DUP3 SHR SWAP1 POP SWAP3 SWAP2 POP POP JUMP JUMPDEST PUSH1 0x0 PUSH2 0x15C8 PUSH1 0x0 NOT DUP5 PUSH1 0x8 MUL PUSH2 0x15AA JUMP JUMPDEST NOT DUP1 DUP4 AND SWAP2 POP POP SWAP3 SWAP2 POP POP JUMP JUMPDEST PUSH1 0x0 PUSH2 0x15E1 DUP4 DUP4 PUSH2 0x15B7 JUMP JUMPDEST SWAP2 POP DUP3 PUSH1 0x2 MUL DUP3 OR SWAP1 POP SWAP3 SWAP2 POP POP JUMP JUMPDEST PUSH2 0x15FA DUP3 PUSH2 0xD86 JUMP JUMPDEST PUSH8 0xFFFFFFFFFFFFFFFF DUP2 GT ISZERO PUSH2 0x1613 JUMPI PUSH2 0x1612 PUSH2 0xEF2 JUMP JUMPDEST JUMPDEST PUSH2 0x161D DUP3 SLOAD PUSH2 0x129B JUMP JUMPDEST PUSH2 0x1628 DUP3 DUP3 DUP6 PUSH2 0x1564 JUMP JUMPDEST PUSH1 0x0 PUSH1 0x20 SWAP1 POP PUSH1 0x1F DUP4 GT PUSH1 0x1 DUP2 EQ PUSH2 0x165B JUMPI PUSH1 0x0 DUP5 ISZERO PUSH2 0x1649 JUMPI DUP3 DUP8 ADD MLOAD SWAP1 POP JUMPDEST PUSH2 0x1653 DUP6 DUP3 PUSH2 0x15D5 JUMP JUMPDEST DUP7 SSTORE POP PUSH2 0x16BB JUMP JUMPDEST PUSH1 0x1F NOT DUP5 AND PUSH2 0x1669 DUP7 PUSH2 0x144F JUMP JUMPDEST PUSH1 0x0 JUMPDEST DUP3 DUP2 LT ISZERO PUSH2 0x1691 JUMPI DUP5 DUP10 ADD MLOAD DUP3 SSTORE PUSH1 0x1 DUP3 ADD SWAP2 POP PUSH1 0x20 DUP6 ADD SWAP5 POP PUSH1 0x20 DUP2 ADD SWAP1 POP PUSH2 0x166C JUMP JUMPDEST DUP7 DUP4 LT ISZERO PUSH2 0x16AE JUMPI DUP5 DUP10 ADD MLOAD PUSH2 0x16AA PUSH1 0x1F DUP10 AND DUP3 PUSH2 0x15B7 JUMP JUMPDEST DUP4 SSTORE POP JUMPDEST PUSH1 0x1 PUSH1 0x2 DUP9 MUL ADD DUP9 SSTORE POP POP POP JUMPDEST POP POP POP POP POP POP JUMP JUMPDEST PUSH1 0x0 PUSH1 0xA0 DUP3 ADD SWAP1 POP PUSH2 0x16D8 PUSH1 0x0 DUP4 ADD DUP9 PUSH2 0xD77 JUMP JUMPDEST DUP2 DUP2 SUB PUSH1 0x20 DUP4 ADD MSTORE PUSH2 0x16EA DUP2 DUP8 PUSH2 0xDDD JUMP JUMPDEST SWAP1 POP PUSH2 0x16F9 PUSH1 0x40 DUP4 ADD DUP7 PUSH2 0xD77 JUMP JUMPDEST PUSH2 0x1706 PUSH1 0x60 DUP4 ADD DUP6 PUSH2 0xD77 JUMP JUMPDEST PUSH2 0x1713 PUSH1 0x80 DUP4 ADD DUP5 PUSH2 0x1125 JUMP JUMPDEST SWAP7 SWAP6 POP POP POP POP POP POP JUMP JUMPDEST PUSH32 0x43616D706169676E20636F6E646974696F6E73206E6F74206D657420666F7220 PUSH1 0x0 DUP3 ADD MSTORE PUSH32 0x66696E616C697A6174696F6E0000000000000000000000000000000000000000 PUSH1 0x20 DUP3 ADD MSTORE POP JUMP JUMPDEST PUSH1 0x0 PUSH2 0x1779 PUSH1 0x2C DUP4 PUSH2 0xD91 JUMP JUMPDEST SWAP2 POP PUSH2 0x1784 DUP3 PUSH2 0x171D JUMP JUMPDEST PUSH1 0x40 DUP3 ADD SWAP1 POP SWAP2 SWAP1 POP JUMP JUMPDEST PUSH1 0x0 PUSH1 0x20 DUP3 ADD SWAP1 POP DUP2 DUP2 SUB PUSH1 0x0 DUP4 ADD MSTORE PUSH2 0x17A8 DUP2 PUSH2 0x176C JUMP JUMPDEST SWAP1 POP SWAP2 SWAP1 POP JUMP JUMPDEST PUSH32 0x43616D706169676E20616C72656164792066696E616C697A6564000000000000 PUSH1 0x0 DUP3 ADD MSTORE POP JUMP JUMPDEST PUSH1 0x0 PUSH2 0x17E5 PUSH1 0x1A DUP4 PUSH2 0xD91 JUMP JUMPDEST SWAP2 POP PUSH2 0x17F0 DUP3 PUSH2 0x17AF JUMP JUMPDEST PUSH1 0x20 DUP3 ADD SWAP1 POP SWAP2 SWAP1 POP JUMP JUMPDEST PUSH1 0x0 PUSH1 0x20 DUP3 ADD SWAP1 POP DUP2 DUP2 SUB PUSH1 0x0 DUP4 ADD MSTORE PUSH2 0x1814 DUP2 PUSH2 0x17D8 JUMP JUMPDEST SWAP1 POP SWAP2 SWAP1 POP JUMP JUMPDEST PUSH1 0x0 PUSH1 0x40 DUP3 ADD SWAP1 POP PUSH2 0x1830 PUSH1 0x0 DUP4 ADD DUP6 PUSH2 0xD77 JUMP JUMPDEST PUSH2 0x183D PUSH1 0x20 DUP4 ADD DUP5 PUSH2 0xD77 JUMP JUMPDEST SWAP4 SWAP3 POP POP POP JUMP JUMPDEST PUSH32 0x43616D706169676E2068617320656E6465640000000000000000000000000000 PUSH1 0x0 DUP3 ADD MSTORE POP JUMP JUMPDEST PUSH1 0x0 PUSH2 0x187A PUSH1 0x12 DUP4 PUSH2 0xD91 JUMP JUMPDEST SWAP2 POP PUSH2 0x1885 DUP3 PUSH2 0x1844 JUMP JUMPDEST PUSH1 0x20 DUP3 ADD SWAP1 POP SWAP2 SWAP1 POP JUMP JUMPDEST PUSH1 0x0 PUSH1 0x20 DUP3 ADD SWAP1 POP DUP2 DUP2 SUB PUSH1 0x0 DUP4 ADD MSTORE PUSH2 0x18A9 DUP2 PUSH2 0x186D JUMP JUMPDEST SWAP1 POP SWAP2 SWAP1 POP JUMP JUMPDEST PUSH32 0x436F6E747269627574696F6E206D757374206265206772656174657220746861 PUSH1 0x0 DUP3 ADD MSTORE PUSH32 0x6E20300000000000000000000000000000000000000000000000000000000000 PUSH1 0x20 DUP3 ADD MSTORE POP JUMP JUMPDEST PUSH1 0x0 PUSH2 0x190C PUSH1 0x23 DUP4 PUSH2 0xD91 JUMP JUMPDEST SWAP2 POP PUSH2 0x1917 DUP3 PUSH2 0x18B0 JUMP JUMPDEST PUSH1 0x40 DUP3 ADD SWAP1 POP SWAP2 SWAP1 POP JUMP JUMPDEST PUSH1 0x0 PUSH1 0x20 DUP3 ADD SWAP1 POP DUP2 DUP2 SUB PUSH1 0x0 DUP4 ADD MSTORE PUSH2 0x193B DUP2 PUSH2 0x18FF JUMP JUMPDEST SWAP1 POP SWAP2 SWAP1 POP JUMP JUMPDEST PUSH1 0x0 PUSH2 0x194D DUP3 PUSH2 0xD14 JUMP JUMPDEST SWAP2 POP PUSH2 0x1958 DUP4 PUSH2 0xD14 JUMP JUMPDEST SWAP3 POP DUP3 DUP3 MUL PUSH2 0x1966 DUP2 PUSH2 0xD14 JUMP JUMPDEST SWAP2 POP DUP3 DUP3 DIV DUP5 EQ DUP4 ISZERO OR PUSH2 0x197D JUMPI PUSH2 0x197C PUSH2 0x13A4 JUMP JUMPDEST JUMPDEST POP SWAP3 SWAP2 POP POP JUMP JUMPDEST PUSH1 0x0 PUSH1 0x40 DUP3 ADD SWAP1 POP PUSH2 0x1999 PUSH1 0x0 DUP4 ADD DUP6 PUSH2 0x1125 JUMP JUMPDEST PUSH2 0x19A6 PUSH1 0x20 DUP4 ADD DUP5 PUSH2 0xD77 JUMP JUMPDEST SWAP4 SWAP3 POP POP POP JUMP JUMPDEST PUSH1 0x0 PUSH1 0x60 DUP3 ADD SWAP1 POP PUSH2 0x19C2 PUSH1 0x0 DUP4 ADD DUP7 PUSH2 0xD77 JUMP JUMPDEST PUSH2 0x19CF PUSH1 0x20 DUP4 ADD DUP6 PUSH2 0x1125 JUMP JUMPDEST PUSH2 0x19DC PUSH1 0x40 DUP4 ADD DUP5 PUSH2 0xD77 JUMP JUMPDEST SWAP5 SWAP4 POP POP POP POP JUMP INVALID LOG2 PUSH5 0x6970667358 0x22 SLT KECCAK256 0xDD PUSH9 0x7E1DCE6CF90A538AEE CALLDATASIZE STOP RETURNDATACOPY 0xD2 PUSH22 0xA3A2374D06BCD5C4146394FA82297DCE64736F6C6343 STOP ADDMOD EQ STOP CALLER "},"methodIdentifiers":{"campaignCount()":"7274e30d","campaigns(uint256)":"141961bc","contribute(uint256)":"c1cbbca7","contributions(uint256,address)":"3d891f59","createCampaign(string,uint256,uint256)":"3020580b","finalizeCampaign(uint256)":"6b5ca27d","getCampaign(uint256)":"5598f8cc","owner()":"8da5cb5b","renounceOwnership()":"715018a6","rewardToken()":"f7c618c1","transferOwnership(address)":"f2fde38b"}}}}}