{
  "_format": "hh-sol-artifact-1",
  "contractName": "Crowdfunding",
  "sourceName": "contracts/Crowdfunding.sol",
  "abi": [
    {
      "inputs": [
        {
          "internalType": "address",
          "name": "_rewardTokenAddress",
          "type": "address"
        }
      ],
      "stateMutability": "nonpayable",
      "type": "constructor"
    },
    {
      "inputs": [
        {
          "internalType": "address",
          "name": "owner",
          "type": "address"
        }
      ],
      "name": "OwnableInvalidOwner",
      "type": "error"
    },
    {
      "inputs": [
        {
          "internalType": "address",
          "name": "account",
          "type": "address"
        }
      ],
      "name": "OwnableUnauthorizedAccount",
      "type": "error"
    },
    {
      "anonymous": false,
      "inputs": [
        {
          "indexed": false,
          "internalType": "uint256",
          "name": "id",
          "type": "uint256"
        },
        {
          "indexed": false,
          "internalType": "string",
          "name": "title",
          "type": "string"
        },
        {
          "indexed": false,
          "internalType": "uint256",
          "name": "goal",
          "type": "uint256"
        },
        {
          "indexed": false,
          "internalType": "uint256",
          "name": "deadline",
          "type": "uint256"
        },
        {
          "indexed": false,
          "internalType": "address",
          "name": "creator",
          "type": "address"
        }
      ],
      "name": "CampaignCreated",
      "type": "event"
    },
    {
      "anonymous": false,
      "inputs": [
        {
          "indexed": false,
          "internalType": "uint256",
          "name": "campaignId",
          "type": "uint256"
        },
        {
          "indexed": false,
          "internalType": "uint256",
          "name": "totalRaised",
          "type": "uint256"
        }
      ],
      "name": "CampaignFinalized",
      "type": "event"
    },
    {
      "anonymous": false,
      "inputs": [
        {
          "indexed": false,
          "internalType": "uint256",
          "name": "campaignId",
          "type": "uint256"
        },
        {
          "indexed": false,
          "internalType": "address",
          "name": "contributor",
          "type": "address"
        },
        {
          "indexed": false,
          "internalType": "uint256",
          "name": "amount",
          "type": "uint256"
        }
      ],
      "name": "ContributionMade",
      "type": "event"
    },
    {
      "anonymous": false,
      "inputs": [
        {
          "indexed": true,
          "internalType": "address",
          "name": "previousOwner",
          "type": "address"
        },
        {
          "indexed": true,
          "internalType": "address",
          "name": "newOwner",
          "type": "address"
        }
      ],
      "name": "OwnershipTransferred",
      "type": "event"
    },
    {
      "inputs": [],
      "name": "campaignCount",
      "outputs": [
        {
          "internalType": "uint256",
          "name": "",
          "type": "uint256"
        }
      ],
      "stateMutability": "view",
      "type": "function"
    },
    {
      "inputs": [
        {
          "internalType": "uint256",
          "name": "",
          "type": "uint256"
        }
      ],
      "name": "campaigns",
      "outputs": [
        {
          "internalType": "uint256",
          "name": "id",
          "type": "uint256"
        },
        {
          "internalType": "string",
          "name": "title",
          "type": "string"
        },
        {
          "internalType": "uint256",
          "name": "goal",
          "type": "uint256"
        },
        {
          "internalType": "uint256",
          "name": "deadline",
          "type": "uint256"
        },
        {
          "internalType": "address payable",
          "name": "creator",
          "type": "address"
        },
        {
          "internalType": "uint256",
          "name": "totalRaised",
          "type": "uint256"
        },
        {
          "internalType": "bool",
          "name": "finalized",
          "type": "bool"
        }
      ],
      "stateMutability": "view",
      "type": "function"
    },
    {
      "inputs": [
        {
          "internalType": "uint256",
          "name": "_campaignId",
          "type": "uint256"
        }
      ],
      "name": "contribute",
      "outputs": [],
      "stateMutability": "payable",
      "type": "function"
    },
    {
      "inputs": [
        {
          "internalType": "uint256",
          "name": "",
          "type": "uint256"
        },
        {
          "internalType": "address",
          "name": "",
          "type": "address"
        }
      ],
      "name": "contributions",
      "outputs": [
        {
          "internalType": "uint256",
          "name": "",
          "type": "uint256"
        }
      ],
      "stateMutability": "view",
      "type": "function"
    },
    {
      "inputs": [
        {
          "internalType": "string",
          "name": "_title",
          "type": "string"
        },
        {
          "internalType": "uint256",
          "name": "_goal",
          "type": "uint256"
        },
        {
          "internalType": "uint256",
          "name": "_duration",
          "type": "uint256"
        }
      ],
      "name": "createCampaign",
      "outputs": [],
      "stateMutability": "nonpayable",
      "type": "function"
    },
    {
      "inputs": [
        {
          "internalType": "uint256",
          "name": "_campaignId",
          "type": "uint256"
        }
      ],
      "name": "finalizeCampaign",
      "outputs": [],
      "stateMutability": "nonpayable",
      "type": "function"
    },
    {
      "inputs": [
        {
          "internalType": "uint256",
          "name": "_campaignId",
          "type": "uint256"
        }
      ],
      "name": "getCampaign",
      "outputs": [
        {
          "internalType": "uint256",
          "name": "id",
          "type": "uint256"
        },
        {
          "internalType": "string",
          "name": "title",
          "type": "string"
        },
        {
          "internalType": "uint256",
          "name": "goal",
          "type": "uint256"
        },
        {
          "internalType": "uint256",
          "name": "deadline",
          "type": "uint256"
        },
        {
          "internalType": "address",
          "name": "creator",
          "type": "address"
        },
        {
          "internalType": "uint256",
          "name": "totalRaised",
          "type": "uint256"
        },
        {
          "internalType": "bool",
          "name": "finalized",
          "type": "bool"
        }
      ],
      "stateMutability": "view",
      "type": "function"
    },
    {
      "inputs": [],
      "name": "owner",
      "outputs": [
        {
          "internalType": "address",
          "name": "",
          "type": "address"
        }
      ],
      "stateMutability": "view",
      "type": "function"
    },
    {
      "inputs": [],
      "name": "renounceOwnership",
      "outputs": [],
      "stateMutability": "nonpayable",
      "type": "function"
    },
    {
      "inputs": [],
      "name": "rewardToken",
      "outputs": [
        {
          "internalType": "contract RNTtoken",
          "name": "",
          "type": "address"
        }
      ],
      "stateMutability": "view",
      "type": "function"
    },
    {
      "inputs": [
        {
          "internalType": "address",
          "name": "newOwner",
          "type": "address"
        }
      ],
      "name": "transferOwnership",
      "outputs": [],
      "stateMutability": "nonpayable",
      "type": "function"
    }
  ],
  "bytecode": "0x60806040523480156200001157600080fd5b5060405162001cbf38038062001cbf833981810160405281019062000037919062000235565b33600073ffffffffffffffffffffffffffffffffffffffff168173ffffffffffffffffffffffffffffffffffffffff1603620000ad5760006040517f1e4fbdf7000000000000000000000000000000000000000000000000000000008152600401620000a4919062000278565b60405180910390fd5b620000be816200010760201b60201c565b5080600160006101000a81548173ffffffffffffffffffffffffffffffffffffffff021916908373ffffffffffffffffffffffffffffffffffffffff1602179055505062000295565b60008060009054906101000a900473ffffffffffffffffffffffffffffffffffffffff169050816000806101000a81548173ffffffffffffffffffffffffffffffffffffffff021916908373ffffffffffffffffffffffffffffffffffffffff1602179055508173ffffffffffffffffffffffffffffffffffffffff168173ffffffffffffffffffffffffffffffffffffffff167f8be0079c531659141344cd1fd0a4f28419497f9722a3daafe3b4186f6b6457e060405160405180910390a35050565b600080fd5b600073ffffffffffffffffffffffffffffffffffffffff82169050919050565b6000620001fd82620001d0565b9050919050565b6200020f81620001f0565b81146200021b57600080fd5b50565b6000815190506200022f8162000204565b92915050565b6000602082840312156200024e576200024d620001cb565b5b60006200025e848285016200021e565b91505092915050565b6200027281620001f0565b82525050565b60006020820190506200028f600083018462000267565b92915050565b611a1a80620002a56000396000f3fe60806040526004361061009c5760003560e01c8063715018a611610064578063715018a6146101b65780637274e30d146101cd5780638da5cb5b146101f8578063c1cbbca714610223578063f2fde38b1461023f578063f7c618c1146102685761009c565b8063141961bc146100a15780633020580b146100e45780633d891f591461010d5780635598f8cc1461014a5780636b5ca27d1461018d575b600080fd5b3480156100ad57600080fd5b506100c860048036038101906100c39190610d4a565b610293565b6040516100db9796959493929190610e72565b60405180910390f35b3480156100f057600080fd5b5061010b6004803603810190610106919061101d565b61038a565b005b34801561011957600080fd5b50610134600480360381019061012f91906110ca565b610590565b604051610141919061110a565b60405180910390f35b34801561015657600080fd5b50610171600480360381019061016c9190610d4a565b6105b5565b6040516101849796959493929190611134565b60405180910390f35b34801561019957600080fd5b506101b460048036038101906101af9190610d4a565b6106cc565b005b3480156101c257600080fd5b506101cb61086a565b005b3480156101d957600080fd5b506101e261087e565b6040516101ef919061110a565b60405180910390f35b34801561020457600080fd5b5061020d610884565b60405161021a91906111aa565b60405180910390f35b61023d60048036038101906102389190610d4a565b6108ad565b005b34801561024b57600080fd5b50610266600480360381019061026191906111c5565b610b01565b005b34801561027457600080fd5b5061027d610b87565b60405161028a9190611251565b60405180910390f35b60036020528060005260406000206000915090508060000154908060010180546102bc9061129b565b80601f01602080910402602001604051908101604052809291908181526020018280546102e89061129b565b80156103355780601f1061030a57610100808354040283529160200191610335565b820191906000526020600020905b81548152906001019060200180831161031857829003601f168201915b5050505050908060020154908060030154908060040160009054906101000a900473ffffffffffffffffffffffffffffffffffffffff16908060050154908060060160009054906101000a900460ff16905087565b600082116103cd576040517f08c379a00000000000000000000000000000000000000000000000000000000081526004016103c490611318565b60405180910390fd5b60008111610410576040517f08c379a000000000000000000000000000000000000000000000000000000000815260040161040790611384565b60405180910390fd5b60026000815480929190610423906113d3565b91905055506040518060e0016040528060025481526020018481526020018381526020018242610453919061141b565b81526020013373ffffffffffffffffffffffffffffffffffffffff16815260200160008152602001600015158152506003600060025481526020019081526020016000206000820151816000015560208201518160010190816104b691906115f1565b50604082015181600201556060820151816003015560808201518160040160006101000a81548173ffffffffffffffffffffffffffffffffffffffff021916908373ffffffffffffffffffffffffffffffffffffffff16021790555060a0820151816005015560c08201518160060160006101000a81548160ff0219169083151502179055509050507f55c246c9acac35defa7b5b11325208f9615273b139a7d1642a880afb4568637e60025484848442610571919061141b565b336040516105839594939291906116c3565b60405180910390a1505050565b6004602052816000526040600020602052806000526040600020600091509150505481565b60006060600080600080600080600360008a81526020019081526020016000209050806000015481600101826002015483600301548460040160009054906101000a900473ffffffffffffffffffffffffffffffffffffffff1685600501548660060160009054906101000a900460ff168580546106329061129b565b80601f016020809104026020016040519081016040528092919081815260200182805461065e9061129b565b80156106ab5780601f10610680576101008083540402835291602001916106ab565b820191906000526020600020905b81548152906001019060200180831161068e57829003601f168201915b50505050509550975097509750975097509750975050919395979092949650565b60006003600083815260200190815260200160002090508060030154421015806106fe57508060020154816005015410155b61073d576040517f08c379a00000000000000000000000000000000000000000000000000000000081526004016107349061178f565b60405180910390fd5b8060060160009054906101000a900460ff161561078f576040517f08c379a0000000000000000000000000000000000000000000000000000000008152600401610786906117fb565b60405180910390fd5b60018160060160006101000a81548160ff021916908315150217905550600081600501541115610829578060040160009054906101000a900473ffffffffffffffffffffffffffffffffffffffff1673ffffffffffffffffffffffffffffffffffffffff166108fc82600501549081150290604051600060405180830381858888f19350505050158015610827573d6000803e3d6000fd5b505b7f97ff17358ff164756139cc936b31534c4a39ff7d10563278088e003121e5318782826005015460405161085e92919061181b565b60405180910390a15050565b610872610bad565b61087c6000610c34565b565b60025481565b60008060009054906101000a900473ffffffffffffffffffffffffffffffffffffffff16905090565b60006003600083815260200190815260200160002090508060030154421061090a576040517f08c379a000000000000000000000000000000000000000000000000000000000815260040161090190611890565b60405180910390fd5b8060060160009054906101000a900460ff161561095c576040517f08c379a0000000000000000000000000000000000000000000000000000000008152600401610953906117fb565b60405180910390fd5b6000341161099f576040517f08c379a000000000000000000000000000000000000000000000000000000000815260040161099690611922565b60405180910390fd5b348160050160008282546109b3919061141b565b92505081905550346004600084815260200190815260200160002060003373ffffffffffffffffffffffffffffffffffffffff1673ffffffffffffffffffffffffffffffffffffffff1681526020019081526020016000206000828254610a1a919061141b565b925050819055506000606434610a309190611942565b9050600160009054906101000a900473ffffffffffffffffffffffffffffffffffffffff1673ffffffffffffffffffffffffffffffffffffffff166340c10f1933836040518363ffffffff1660e01b8152600401610a8f929190611984565b600060405180830381600087803b158015610aa957600080fd5b505af1158015610abd573d6000803e3d6000fd5b505050507f0a4a91237423e0a1766a761c7cb029311d8b95d6b1b81db1b949a70c98b4e08e833334604051610af4939291906119ad565b60405180910390a1505050565b610b09610bad565b600073ffffffffffffffffffffffffffffffffffffffff168173ffffffffffffffffffffffffffffffffffffffff1603610b7b5760006040517f1e4fbdf7000000000000000000000000000000000000000000000000000000008152600401610b7291906111aa565b60405180910390fd5b610b8481610c34565b50565b600160009054906101000a900473ffffffffffffffffffffffffffffffffffffffff1681565b610bb5610cf8565b73ffffffffffffffffffffffffffffffffffffffff16610bd3610884565b73ffffffffffffffffffffffffffffffffffffffff1614610c3257610bf6610cf8565b6040517f118cdaa7000000000000000000000000000000000000000000000000000000008152600401610c2991906111aa565b60405180910390fd5b565b60008060009054906101000a900473ffffffffffffffffffffffffffffffffffffffff169050816000806101000a81548173ffffffffffffffffffffffffffffffffffffffff021916908373ffffffffffffffffffffffffffffffffffffffff1602179055508173ffffffffffffffffffffffffffffffffffffffff168173ffffffffffffffffffffffffffffffffffffffff167f8be0079c531659141344cd1fd0a4f28419497f9722a3daafe3b4186f6b6457e060405160405180910390a35050565b600033905090565b6000604051905090565b600080fd5b600080fd5b6000819050919050565b610d2781610d14565b8114610d3257600080fd5b50565b600081359050610d4481610d1e565b92915050565b600060208284031215610d6057610d5f610d0a565b5b6000610d6e84828501610d35565b91505092915050565b610d8081610d14565b82525050565b600081519050919050565b600082825260208201905092915050565b60005b83811015610dc0578082015181840152602081019050610da5565b60008484015250505050565b6000601f19601f8301169050919050565b6000610de882610d86565b610df28185610d91565b9350610e02818560208601610da2565b610e0b81610dcc565b840191505092915050565b600073ffffffffffffffffffffffffffffffffffffffff82169050919050565b6000610e4182610e16565b9050919050565b610e5181610e36565b82525050565b60008115159050919050565b610e6c81610e57565b82525050565b600060e082019050610e87600083018a610d77565b8181036020830152610e998189610ddd565b9050610ea86040830188610d77565b610eb56060830187610d77565b610ec26080830186610e48565b610ecf60a0830185610d77565b610edc60c0830184610e63565b98975050505050505050565b600080fd5b600080fd5b7f4e487b7100000000000000000000000000000000000000000000000000000000600052604160045260246000fd5b610f2a82610dcc565b810181811067ffffffffffffffff82111715610f4957610f48610ef2565b5b80604052505050565b6000610f5c610d00565b9050610f688282610f21565b919050565b600067ffffffffffffffff821115610f8857610f87610ef2565b5b610f9182610dcc565b9050602081019050919050565b82818337600083830152505050565b6000610fc0610fbb84610f6d565b610f52565b905082815260208101848484011115610fdc57610fdb610eed565b5b610fe7848285610f9e565b509392505050565b600082601f83011261100457611003610ee8565b5b8135611014848260208601610fad565b91505092915050565b60008060006060848603121561103657611035610d0a565b5b600084013567ffffffffffffffff81111561105457611053610d0f565b5b61106086828701610fef565b935050602061107186828701610d35565b925050604061108286828701610d35565b9150509250925092565b600061109782610e16565b9050919050565b6110a78161108c565b81146110b257600080fd5b50565b6000813590506110c48161109e565b92915050565b600080604083850312156110e1576110e0610d0a565b5b60006110ef85828601610d35565b9250506020611100858286016110b5565b9150509250929050565b600060208201905061111f6000830184610d77565b92915050565b61112e8161108c565b82525050565b600060e082019050611149600083018a610d77565b818103602083015261115b8189610ddd565b905061116a6040830188610d77565b6111776060830187610d77565b6111846080830186611125565b61119160a0830185610d77565b61119e60c0830184610e63565b98975050505050505050565b60006020820190506111bf6000830184611125565b92915050565b6000602082840312156111db576111da610d0a565b5b60006111e9848285016110b5565b91505092915050565b6000819050919050565b600061121761121261120d84610e16565b6111f2565b610e16565b9050919050565b6000611229826111fc565b9050919050565b600061123b8261121e565b9050919050565b61124b81611230565b82525050565b60006020820190506112666000830184611242565b92915050565b7f4e487b7100000000000000000000000000000000000000000000000000000000600052602260045260246000fd5b600060028204905060018216806112b357607f821691505b6020821081036112c6576112c561126c565b5b50919050565b7f476f616c206d7573742062652067726561746572207468616e20300000000000600082015250565b6000611302601b83610d91565b915061130d826112cc565b602082019050919050565b60006020820190508181036000830152611331816112f5565b9050919050565b7f4475726174696f6e206d7573742062652067726561746572207468616e203000600082015250565b600061136e601f83610d91565b915061137982611338565b602082019050919050565b6000602082019050818103600083015261139d81611361565b9050919050565b7f4e487b7100000000000000000000000000000000000000000000000000000000600052601160045260246000fd5b60006113de82610d14565b91507fffffffffffffffffffffffffffffffffffffffffffffffffffffffffffffffff82036114105761140f6113a4565b5b600182019050919050565b600061142682610d14565b915061143183610d14565b9250828201905080821115611449576114486113a4565b5b92915050565b60008190508160005260206000209050919050565b60006020601f8301049050919050565b600082821b905092915050565b6000600883026114b17fffffffffffffffffffffffffffffffffffffffffffffffffffffffffffffffff82611474565b6114bb8683611474565b95508019841693508086168417925050509392505050565b60006114ee6114e96114e484610d14565b6111f2565b610d14565b9050919050565b6000819050919050565b611508836114d3565b61151c611514826114f5565b848454611481565b825550505050565b600090565b611531611524565b61153c8184846114ff565b505050565b5b8181101561156057611555600082611529565b600181019050611542565b5050565b601f8211156115a5576115768161144f565b61157f84611464565b8101602085101561158e578190505b6115a261159a85611464565b830182611541565b50505b505050565b600082821c905092915050565b60006115c8600019846008026115aa565b1980831691505092915050565b60006115e183836115b7565b9150826002028217905092915050565b6115fa82610d86565b67ffffffffffffffff81111561161357611612610ef2565b5b61161d825461129b565b611628828285611564565b600060209050601f83116001811461165b5760008415611649578287015190505b61165385826115d5565b8655506116bb565b601f1984166116698661144f565b60005b828110156116915784890151825560018201915060208501945060208101905061166c565b868310156116ae57848901516116aa601f8916826115b7565b8355505b6001600288020188555050505b505050505050565b600060a0820190506116d86000830188610d77565b81810360208301526116ea8187610ddd565b90506116f96040830186610d77565b6117066060830185610d77565b6117136080830184611125565b9695505050505050565b7f43616d706169676e20636f6e646974696f6e73206e6f74206d657420666f722060008201527f66696e616c697a6174696f6e0000000000000000000000000000000000000000602082015250565b6000611779602c83610d91565b91506117848261171d565b604082019050919050565b600060208201905081810360008301526117a88161176c565b9050919050565b7f43616d706169676e20616c72656164792066696e616c697a6564000000000000600082015250565b60006117e5601a83610d91565b91506117f0826117af565b602082019050919050565b60006020820190508181036000830152611814816117d8565b9050919050565b60006040820190506118306000830185610d77565b61183d6020830184610d77565b9392505050565b7f43616d706169676e2068617320656e6465640000000000000000000000000000600082015250565b600061187a601283610d91565b915061188582611844565b602082019050919050565b600060208201905081810360008301526118a98161186d565b9050919050565b7f436f6e747269627574696f6e206d75737420626520677265617465722074686160008201527f6e20300000000000000000000000000000000000000000000000000000000000602082015250565b600061190c602383610d91565b9150611917826118b0565b604082019050919050565b6000602082019050818103600083015261193b816118ff565b9050919050565b600061194d82610d14565b915061195883610d14565b925082820261196681610d14565b9150828204841483151761197d5761197c6113a4565b5b5092915050565b60006040820190506119996000830185611125565b6119a66020830184610d77565b9392505050565b60006060820190506119c26000830186610d77565b6119cf6020830185611125565b6119dc6040830184610d77565b94935050505056fea2646970667358221220dd687e1dce6cf90a538aee36003ed275a3a2374d06bcd5c4146394fa82297dce64736f6c63430008140033",
  "linkReferences": {},
  "deployedLinkReferences": {}
}